{"abi":[{"type":"constructor","inputs":[{"name":"_governor","type":"address","internalType":"address"},{"name":"_whitelist","type":"address","internalType":"address"},{"name":"_mediationService","type":"address","internalType":"address"},{"name":"_escrowFactory","type":"address","internalType":"address"},{"name":"_approvedTokens","type":"address[]","internalType":"address[]"}],"stateMutability":"nonpayable"},{"type":"fallback","stateMutability":"payable"},{"type":"receive","stateMutability":"payable"},{"type":"function","name":"APPEAL_PERIOD","inputs":[],"outputs":[{"name":"","type":"uint24","internalType":"uint24"}],"stateMutability":"view"},{"type":"function","name":"CHANGE_ORDER_PERIOD","inputs":[],"outputs":[{"name":"","type":"uint24","internalType":"uint24"}],"stateMutability":"view"},{"type":"function","name":"ESCROW_FACTORY","inputs":[],"outputs":[{"name":"","type":"address","internalType":"contract IEscrowFactory"}],"stateMutability":"view"},{"type":"function","name":"GOVERNOR","inputs":[],"outputs":[{"name":"","type":"address","internalType":"address"}],"stateMutability":"view"},{"type":"function","name":"MEDIATION_SERVICE","inputs":[],"outputs":[{"name":"","type":"address","internalType":"contract IMediationService"}],"stateMutability":"view"},{"type":"function","name":"WHITELIST","inputs":[],"outputs":[{"name":"","type":"address","internalType":"contract IWhitelist"}],"stateMutability":"view"},{"type":"function","name":"activateProject","inputs":[{"name":"_projectId","type":"uint256","internalType":"uint256"}],"outputs":[],"stateMutability":"payable"},{"type":"function","name":"activeChangeOrder","inputs":[{"name":"_projectId","type":"uint256","internalType":"uint256"}],"outputs":[{"name":"","type":"bool","internalType":"bool"}],"stateMutability":"view"},{"type":"function","name":"appealDecision","inputs":[{"name":"_projectId","type":"uint256","internalType":"uint256"}],"outputs":[{"name":"","type":"uint256","internalType":"uint256"}],"stateMutability":"nonpayable"},{"type":"function","name":"approveChangeOrder","inputs":[{"name":"_projectId","type":"uint256","internalType":"uint256"}],"outputs":[],"stateMutability":"nonpayable"},{"type":"function","name":"approveProject","inputs":[{"name":"_projectId","type":"uint256","internalType":"uint256"}],"outputs":[],"stateMutability":"nonpayable"},{"type":"function","name":"approveToken","inputs":[{"name":"_erc20","type":"address","internalType":"address"}],"outputs":[],"stateMutability":"nonpayable"},{"type":"function","name":"calculateNebulaiTxFee","inputs":[{"name":"_projectFee","type":"uint256","internalType":"uint256"}],"outputs":[{"name":"","type":"uint256","internalType":"uint256"}],"stateMutability":"view"},{"type":"function","name":"cancelProject","inputs":[{"name":"_projectId","type":"uint256","internalType":"uint256"}],"outputs":[],"stateMutability":"nonpayable"},{"type":"function","name":"challengeProject","inputs":[{"name":"_projectId","type":"uint256","internalType":"uint256"},{"name":"_adjustedProjectFee","type":"uint256","internalType":"uint256"},{"name":"_providerStakeForfeit","type":"uint256","internalType":"uint256"},{"name":"_changeOrderDetailsURI","type":"string","internalType":"string"}],"outputs":[],"stateMutability":"nonpayable"},{"type":"function","name":"changeOrderIds","inputs":[],"outputs":[{"name":"_value","type":"uint256","internalType":"uint256"}],"stateMutability":"view"},{"type":"function","name":"completeProject","inputs":[{"name":"_projectId","type":"uint256","internalType":"uint256"}],"outputs":[],"stateMutability":"nonpayable"},{"type":"function","name":"createProject","inputs":[{"name":"_provider","type":"address","internalType":"address"},{"name":"_paymentToken","type":"address","internalType":"address"},{"name":"_projectFee","type":"uint256","internalType":"uint256"},{"name":"_providerStake","type":"uint256","internalType":"uint256"},{"name":"_dueDate","type":"uint256","internalType":"uint256"},{"name":"_reviewPeriodLength","type":"uint256","internalType":"uint256"},{"name":"_detailsURI","type":"string","internalType":"string"}],"outputs":[{"name":"","type":"uint256","internalType":"uint256"}],"stateMutability":"payable"},{"type":"function","name":"discontinueProject","inputs":[{"name":"_projectId","type":"uint256","internalType":"uint256"},{"name":"_adjustedProjectFee","type":"uint256","internalType":"uint256"},{"name":"_providerStakeForfeit","type":"uint256","internalType":"uint256"},{"name":"_changeOrderDetailsURI","type":"string","internalType":"string"}],"outputs":[],"stateMutability":"nonpayable"},{"type":"function","name":"disputeProject","inputs":[{"name":"_projectId","type":"uint256","internalType":"uint256"},{"name":"_adjustedProjectFee","type":"uint256","internalType":"uint256"},{"name":"_providerStakeForfeit","type":"uint256","internalType":"uint256"}],"outputs":[{"name":"","type":"uint256","internalType":"uint256"}],"stateMutability":"nonpayable"},{"type":"function","name":"erc20Tokens","inputs":[{"name":"","type":"uint256","internalType":"uint256"}],"outputs":[{"name":"","type":"address","internalType":"address"}],"stateMutability":"view"},{"type":"function","name":"escrowWithdrawnEvent","inputs":[{"name":"_projectId","type":"uint256","internalType":"uint256"},{"name":"_user","type":"address","internalType":"address"},{"name":"_amount","type":"uint256","internalType":"uint256"},{"name":"_commissionPaid","type":"uint256","internalType":"uint256"}],"outputs":[],"stateMutability":"nonpayable"},{"type":"function","name":"getActiveChangeOrder","inputs":[{"name":"_projectId","type":"uint256","internalType":"uint256"}],"outputs":[{"name":"","type":"tuple","internalType":"struct DataStructuresLibrary.ChangeOrder","components":[{"name":"changeOrderId","type":"uint256","internalType":"uint256"},{"name":"projectId","type":"uint256","internalType":"uint256"},{"name":"dateProposed","type":"uint256","internalType":"uint256"},{"name":"proposedBy","type":"address","internalType":"address"},{"name":"adjustedProjectFee","type":"uint256","internalType":"uint256"},{"name":"providerStakeForfeit","type":"uint256","internalType":"uint256"},{"name":"active","type":"bool","internalType":"bool"},{"name":"buyerApproval","type":"bool","internalType":"bool"},{"name":"providerApproval","type":"bool","internalType":"bool"},{"name":"detailsURI","type":"string","internalType":"string"}]}],"stateMutability":"view"},{"type":"function","name":"getChangeOrders","inputs":[{"name":"_projectId","type":"uint256","internalType":"uint256"}],"outputs":[{"name":"","type":"tuple[]","internalType":"struct DataStructuresLibrary.ChangeOrder[]","components":[{"name":"changeOrderId","type":"uint256","internalType":"uint256"},{"name":"projectId","type":"uint256","internalType":"uint256"},{"name":"dateProposed","type":"uint256","internalType":"uint256"},{"name":"proposedBy","type":"address","internalType":"address"},{"name":"adjustedProjectFee","type":"uint256","internalType":"uint256"},{"name":"providerStakeForfeit","type":"uint256","internalType":"uint256"},{"name":"active","type":"bool","internalType":"bool"},{"name":"buyerApproval","type":"bool","internalType":"bool"},{"name":"providerApproval","type":"bool","internalType":"bool"},{"name":"detailsURI","type":"string","internalType":"string"}]}],"stateMutability":"view"},{"type":"function","name":"getCommissionFees","inputs":[{"name":"_paymentToken","type":"address","internalType":"address"}],"outputs":[{"name":"","type":"uint256","internalType":"uint256"}],"stateMutability":"view"},{"type":"function","name":"getDisputeId","inputs":[{"name":"projectId","type":"uint256","internalType":"uint256"}],"outputs":[{"name":"","type":"uint256","internalType":"uint256"}],"stateMutability":"view"},{"type":"function","name":"getErc20Tokens","inputs":[],"outputs":[{"name":"","type":"address[]","internalType":"address[]"}],"stateMutability":"view"},{"type":"function","name":"getProject","inputs":[{"name":"_projectId","type":"uint256","internalType":"uint256"}],"outputs":[{"name":"","type":"tuple","internalType":"struct DataStructuresLibrary.Project","components":[{"name":"projectId","type":"uint256","internalType":"uint256"},{"name":"buyer","type":"address","internalType":"address"},{"name":"provider","type":"address","internalType":"address"},{"name":"escrow","type":"address","internalType":"address"},{"name":"paymentToken","type":"address","internalType":"address"},{"name":"projectFee","type":"uint256","internalType":"uint256"},{"name":"providerStake","type":"uint256","internalType":"uint256"},{"name":"dueDate","type":"uint256","internalType":"uint256"},{"name":"reviewPeriodLength","type":"uint256","internalType":"uint256"},{"name":"dateCompleted","type":"uint256","internalType":"uint256"},{"name":"changeOrderPeriodInitiated","type":"uint256","internalType":"uint256"},{"name":"nebulaiTxFee","type":"uint256","internalType":"uint256"},{"name":"status","type":"uint8","internalType":"enum DataStructuresLibrary.Status"},{"name":"detailsURI","type":"string","internalType":"string"}]}],"stateMutability":"view"},{"type":"function","name":"getProjectStatus","inputs":[{"name":"_projectId","type":"uint256","internalType":"uint256"}],"outputs":[{"name":"","type":"uint8","internalType":"enum DataStructuresLibrary.Status"}],"stateMutability":"view"},{"type":"function","name":"getTxFeesHeld","inputs":[{"name":"_projectId","type":"uint256","internalType":"uint256"}],"outputs":[{"name":"","type":"uint256","internalType":"uint256"}],"stateMutability":"view"},{"type":"function","name":"getTxFeesPaid","inputs":[{"name":"_paymentToken","type":"address","internalType":"address"}],"outputs":[{"name":"","type":"uint256","internalType":"uint256"}],"stateMutability":"view"},{"type":"function","name":"isApprovedToken","inputs":[{"name":"","type":"address","internalType":"address"}],"outputs":[{"name":"","type":"bool","internalType":"bool"}],"stateMutability":"view"},{"type":"function","name":"isDisputed","inputs":[{"name":"_projectId","type":"uint256","internalType":"uint256"}],"outputs":[{"name":"","type":"bool","internalType":"bool"}],"stateMutability":"view"},{"type":"function","name":"minimumTxFee","inputs":[],"outputs":[{"name":"","type":"uint256","internalType":"uint256"}],"stateMutability":"view"},{"type":"function","name":"nebulaiTxFee","inputs":[],"outputs":[{"name":"","type":"uint256","internalType":"uint256"}],"stateMutability":"view"},{"type":"function","name":"projectIds","inputs":[],"outputs":[{"name":"_value","type":"uint256","internalType":"uint256"}],"stateMutability":"view"},{"type":"function","name":"proposeSettlement","inputs":[{"name":"_projectId","type":"uint256","internalType":"uint256"},{"name":"_adjustedProjectFee","type":"uint256","internalType":"uint256"},{"name":"_providerStakeForfeit","type":"uint256","internalType":"uint256"},{"name":"_settlementDetailsURI","type":"string","internalType":"string"}],"outputs":[],"stateMutability":"nonpayable"},{"type":"function","name":"receiveCommission","inputs":[{"name":"_projectId","type":"uint256","internalType":"uint256"},{"name":"_commission","type":"uint256","internalType":"uint256"}],"outputs":[],"stateMutability":"nonpayable"},{"type":"function","name":"removeToken","inputs":[{"name":"_erc20","type":"address","internalType":"address"}],"outputs":[],"stateMutability":"nonpayable"},{"type":"function","name":"resolveByMediation","inputs":[{"name":"_projectId","type":"uint256","internalType":"uint256"}],"outputs":[],"stateMutability":"nonpayable"},{"type":"function","name":"resolveDismissedCase","inputs":[{"name":"_projectId","type":"uint256","internalType":"uint256"}],"outputs":[],"stateMutability":"nonpayable"},{"type":"function","name":"reviewOverdue","inputs":[{"name":"_projectId","type":"uint256","internalType":"uint256"}],"outputs":[],"stateMutability":"nonpayable"},{"type":"function","name":"setNebulaiTxFee","inputs":[{"name":"_feePercentage","type":"uint256","internalType":"uint256"}],"outputs":[],"stateMutability":"nonpayable"},{"type":"function","name":"waiveAppeal","inputs":[{"name":"_projectId","type":"uint256","internalType":"uint256"}],"outputs":[],"stateMutability":"nonpayable"},{"type":"function","name":"withdrawFees","inputs":[{"name":"_recipient","type":"address","internalType":"address"}],"outputs":[],"stateMutability":"nonpayable"},{"type":"event","name":"ChangeOrderApproved","inputs":[{"name":"projectId","type":"uint256","indexed":true,"internalType":"uint256"},{"name":"buyer","type":"address","indexed":true,"internalType":"address"},{"name":"provider","type":"address","indexed":true,"internalType":"address"}],"anonymous":false},{"type":"event","name":"ChangeOrderProposed","inputs":[{"name":"projectId","type":"uint256","indexed":true,"internalType":"uint256"}],"anonymous":false},{"type":"event","name":"ChangeOrderRetracted","inputs":[{"name":"projectId","type":"uint256","indexed":true,"internalType":"uint256"},{"name":"retractedBy","type":"address","indexed":true,"internalType":"address"}],"anonymous":false},{"type":"event","name":"CommissionFeeReceived","inputs":[{"name":"projectId","type":"uint256","indexed":true,"internalType":"uint256"},{"name":"commissionAmount","type":"uint256","indexed":false,"internalType":"uint256"},{"name":"paymentToken","type":"address","indexed":false,"internalType":"address"}],"anonymous":false},{"type":"event","name":"ERC20Approved","inputs":[{"name":"token","type":"address","indexed":false,"internalType":"address"}],"anonymous":false},{"type":"event","name":"ERC20Removed","inputs":[{"name":"token","type":"address","indexed":false,"internalType":"address"}],"anonymous":false},{"type":"event","name":"EscrowWithdrawn","inputs":[{"name":"projectId","type":"uint256","indexed":true,"internalType":"uint256"},{"name":"user","type":"address","indexed":true,"internalType":"address"},{"name":"escrow","type":"address","indexed":true,"internalType":"address"},{"name":"amount","type":"uint256","indexed":false,"internalType":"uint256"},{"name":"commissionFeePaid","type":"uint256","indexed":false,"internalType":"uint256"}],"anonymous":false},{"type":"event","name":"FeesWithdrawnERC20","inputs":[{"name":"recipient","type":"address","indexed":false,"internalType":"address"},{"name":"token","type":"address","indexed":false,"internalType":"address"},{"name":"amount","type":"uint256","indexed":false,"internalType":"uint256"}],"anonymous":false},{"type":"event","name":"FeesWithdrawnNative","inputs":[{"name":"recipient","type":"address","indexed":false,"internalType":"address"},{"name":"amount","type":"uint256","indexed":false,"internalType":"uint256"}],"anonymous":false},{"type":"event","name":"NebulaiTxFeeChanged","inputs":[{"name":"txFee","type":"uint256","indexed":false,"internalType":"uint256"}],"anonymous":false},{"type":"event","name":"ProjectActivated","inputs":[{"name":"projectId","type":"uint256","indexed":true,"internalType":"uint256"},{"name":"buyer","type":"address","indexed":true,"internalType":"address"},{"name":"provider","type":"address","indexed":true,"internalType":"address"}],"anonymous":false},{"type":"event","name":"ProjectAppealed","inputs":[{"name":"projectId","type":"uint256","indexed":true,"internalType":"uint256"},{"name":"disputeId","type":"uint256","indexed":true,"internalType":"uint256"},{"name":"appealedBy","type":"address","indexed":false,"internalType":"address"}],"anonymous":false},{"type":"event","name":"ProjectApproved","inputs":[{"name":"projectId","type":"uint256","indexed":true,"internalType":"uint256"},{"name":"buyer","type":"address","indexed":true,"internalType":"address"},{"name":"provider","type":"address","indexed":true,"internalType":"address"}],"anonymous":false},{"type":"event","name":"ProjectCancelled","inputs":[{"name":"projectId","type":"uint256","indexed":true,"internalType":"uint256"},{"name":"buyer","type":"address","indexed":true,"internalType":"address"},{"name":"provider","type":"address","indexed":true,"internalType":"address"}],"anonymous":false},{"type":"event","name":"ProjectChallenged","inputs":[{"name":"projectId","type":"uint256","indexed":true,"internalType":"uint256"},{"name":"buyer","type":"address","indexed":true,"internalType":"address"},{"name":"provider","type":"address","indexed":true,"internalType":"address"}],"anonymous":false},{"type":"event","name":"ProjectCompleted","inputs":[{"name":"projectId","type":"uint256","indexed":true,"internalType":"uint256"},{"name":"buyer","type":"address","indexed":true,"internalType":"address"},{"name":"provider","type":"address","indexed":true,"internalType":"address"}],"anonymous":false},{"type":"event","name":"ProjectCreated","inputs":[{"name":"projectId","type":"uint256","indexed":true,"internalType":"uint256"},{"name":"buyer","type":"address","indexed":true,"internalType":"address"},{"name":"provider","type":"address","indexed":true,"internalType":"address"}],"anonymous":false},{"type":"event","name":"ProjectDiscontinued","inputs":[{"name":"projectId","type":"uint256","indexed":true,"internalType":"uint256"},{"name":"buyer","type":"address","indexed":true,"internalType":"address"},{"name":"provider","type":"address","indexed":true,"internalType":"address"}],"anonymous":false},{"type":"event","name":"ProjectDisputed","inputs":[{"name":"projectId","type":"uint256","indexed":true,"internalType":"uint256"},{"name":"buyer","type":"address","indexed":true,"internalType":"address"},{"name":"provider","type":"address","indexed":true,"internalType":"address"},{"name":"disputeId","type":"uint256","indexed":false,"internalType":"uint256"}],"anonymous":false},{"type":"event","name":"ResolvedByDismissedCase","inputs":[{"name":"projectId","type":"uint256","indexed":true,"internalType":"uint256"},{"name":"disputeId","type":"uint256","indexed":true,"internalType":"uint256"}],"anonymous":false},{"type":"event","name":"ResolvedByMediation","inputs":[{"name":"projectId","type":"uint256","indexed":true,"internalType":"uint256"},{"name":"disputeId","type":"uint256","indexed":true,"internalType":"uint256"}],"anonymous":false},{"type":"event","name":"ReviewOverdue","inputs":[{"name":"projectId","type":"uint256","indexed":true,"internalType":"uint256"},{"name":"buyer","type":"address","indexed":true,"internalType":"address"},{"name":"provider","type":"address","indexed":true,"internalType":"address"}],"anonymous":false},{"type":"event","name":"SettlementProposed","inputs":[{"name":"projectId","type":"uint256","indexed":true,"internalType":"uint256"},{"name":"disputeId","type":"uint256","indexed":true,"internalType":"uint256"}],"anonymous":false},{"type":"error","name":"Marketplace__AdjustedFeeExceedsProjectFee","inputs":[]},{"type":"error","name":"Marketplace__AlreadyApprovedChangeOrder","inputs":[]},{"type":"error","name":"Marketplace__AppealPeriodNotOver","inputs":[]},{"type":"error","name":"Marketplace__AppealPeriodOver","inputs":[]},{"type":"error","name":"Marketplace__ChangeOrderAlreadyExists","inputs":[]},{"type":"error","name":"Marketplace__ChangeOrderCannotBeProposed","inputs":[]},{"type":"error","name":"Marketplace__ChangeOrderNotValid","inputs":[]},{"type":"error","name":"Marketplace__ChangeOrderPeriodStillActive","inputs":[]},{"type":"error","name":"Marketplace__CommissionMustBePaidByEscrow","inputs":[]},{"type":"error","name":"Marketplace__EscrowWithdrawError","inputs":[]},{"type":"error","name":"Marketplace__ForfeitExceedsProviderStake","inputs":[]},{"type":"error","name":"Marketplace__InsufficientAmount","inputs":[]},{"type":"error","name":"Marketplace__InsufficientApproval","inputs":[]},{"type":"error","name":"Marketplace__InvalidDueDate","inputs":[]},{"type":"error","name":"Marketplace__InvalidProviderAddress","inputs":[]},{"type":"error","name":"Marketplace__InvalidReviewPeriodLength","inputs":[]},{"type":"error","name":"Marketplace__InvalidSettlement","inputs":[]},{"type":"error","name":"Marketplace__MediationServiceCaseAlreadyInitiated","inputs":[]},{"type":"error","name":"Marketplace__MediationServiceHasNotDismissedCase","inputs":[]},{"type":"error","name":"Marketplace__MediationServiceHasNotRuled","inputs":[]},{"type":"error","name":"Marketplace__NativeCurrencySent","inputs":[]},{"type":"error","name":"Marketplace__NoActiveChangeOrder","inputs":[]},{"type":"error","name":"Marketplace__OnlyBuyer","inputs":[]},{"type":"error","name":"Marketplace__OnlyBuyerOrProvider","inputs":[]},{"type":"error","name":"Marketplace__OnlyGovernor","inputs":[]},{"type":"error","name":"Marketplace__OnlyNonPrevailingParty","inputs":[]},{"type":"error","name":"Marketplace__OnlyProvider","inputs":[]},{"type":"error","name":"Marketplace__OnlyUser","inputs":[]},{"type":"error","name":"Marketplace__ProjectCannotBeActivated","inputs":[]},{"type":"error","name":"Marketplace__ProjectCannotBeCancelled","inputs":[]},{"type":"error","name":"Marketplace__ProjectCannotBeChallenged","inputs":[]},{"type":"error","name":"Marketplace__ProjectCannotBeDisputed","inputs":[]},{"type":"error","name":"Marketplace__ProjectIsNotDisputed","inputs":[]},{"type":"error","name":"Marketplace__ProjectIsNotOverdue","inputs":[]},{"type":"error","name":"Marketplace__ProjectMustBeActive","inputs":[]},{"type":"error","name":"Marketplace__ProjectNotCompleted","inputs":[]},{"type":"error","name":"Marketplace__ProjectReviewPeriodEnded","inputs":[]},{"type":"error","name":"Marketplace__ReviewNotOverdue","inputs":[]},{"type":"error","name":"Marketplace__TransferFailed","inputs":[]},{"type":"error","name":"Marketplace__UnapprovedToken","inputs":[]}],"bytecode":{"object":"0x61010060405260036002553480156200001757600080fd5b5060405162004ebc38038062004ebc8339810160408190526200003a9162000140565b6001600160a01b0380861660805284811660a05283811660c052821660e05260005b81518110156200009c57620000938282815181106200007f576200007f62000260565b6020026020010151620000a860201b60201c565b6001016200005c565b50505050505062000276565b60008054600181810183557f290decd9548b62a8d60345a988386fc84ba6bc95484008f6362f93160ef3e56390910180546001600160a01b039094166001600160a01b031990941684179055918152602082905260409020805460ff19169091179055565b80516001600160a01b03811681146200012557600080fd5b919050565b634e487b7160e01b600052604160045260246000fd5b600080600080600060a086880312156200015957600080fd5b62000164866200010d565b94506020620001758188016200010d565b945062000185604088016200010d565b935062000195606088016200010d565b60808801519093506001600160401b0380821115620001b357600080fd5b818901915089601f830112620001c857600080fd5b815181811115620001dd57620001dd6200012a565b8060051b604051601f19603f830116810181811085821117156200020557620002056200012a565b60405291825284820192508381018501918c8311156200022457600080fd5b938501935b828510156200024d576200023d856200010d565b8452938501939285019262000229565b8096505050505050509295509295909350565b634e487b7160e01b600052603260045260246000fd5b60805160a05160c05160e051614b9562000327600039600081816107530152610a7e0152600081816106e301528181610ab8015281816110c60152818161236401528181612477015281816125ed01528181612ce901528181613246015281816133f90152818161399f0152613a6801526000818161032a015281816108e7015261195e01526000818161057f0152818161123e01528181611f370152818161271c01526129c00152614b956000f3fe60806040526004361061025e5760003560e01c8063727109a211610143578063b8e3e04f116100bb578063de708b7e11610077578063de708b7e146107f5578063e17640f414610815578063ec8d435a14610835578063f0f3f2c814610862578063f293abb01461088f578063fc69d836146108af57005b8063b8e3e04f14610721578063be20c1cb14610741578063c61bc02314610775578063d7d3a7f514610795578063d82f3530146107b5578063da2325c8146107d557005b80638a94ddd91161010a5780638a94ddd91461063757806394280aaa146106645780639675c00914610684578063a76792cb146106b1578063aa42f726146106d1578063b04335501461070557005b8063727109a2146105a1578063792d5f9e146105c15780637ccc586e146105e157806380b2edd81461060157806389e79db61461062157005b8063369556c0116101d65780635fa7b5841161019d5780635fa7b584146104de57806360fcc027146104fe5780636a53da771461051e5780636b67c89f146102ed5780636d0365351461054b5780636dc0ae221461056d57005b8063369556c01461043a57806341544a821461045157806345f5c3cb146104645780635990419b146104915780635ce15f37146104a857005b80631bb7cc99116102255780631bb7cc99146103185780632245f1521461036457806324941147146103845780632d5ad3d5146103a457806330cc6aff146103e457806333f83d491461041a57005b80630cee1965146102675780630e01129f1461028d57806315415dc8146102ad578063164e68de146102cd5780631b4ee539146102ed57005b3661026557005b005b61027a6102753660046140d3565b6108cf565b6040519081526020015b60405180910390f35b34801561029957600080fd5b506102656102a836600461415c565b610fbd565b3480156102b957600080fd5b506102656102c8366004614199565b611057565b3480156102d957600080fd5b506102656102e83660046141b2565b611233565b3480156102f957600080fd5b5061030462093a8081565b60405162ffffff9091168152602001610284565b34801561032457600080fd5b5061034c7f000000000000000000000000000000000000000000000000000000000000000081565b6040516001600160a01b039091168152602001610284565b34801561037057600080fd5b5061026561037f366004614199565b611622565b34801561039057600080fd5b5061026561039f366004614199565b6116f4565b3480156103b057600080fd5b506103d46103bf3660046141b2565b60016020526000908152604090205460ff1681565b6040519015158152602001610284565b3480156103f057600080fd5b5061027a6103ff3660046141b2565b6001600160a01b031660009081526005602052604090205490565b34801561042657600080fd5b5061027a610435366004614199565b611909565b34801561044657600080fd5b5060085461027a9081565b61026561045f366004614199565b611949565b34801561047057600080fd5b5061048461047f366004614199565b611daf565b60405161028491906142ca565b34801561049d57600080fd5b5060065461027a9081565b3480156104b457600080fd5b5061027a6104c33660046141b2565b6001600160a01b031660009081526004602052604090205490565b3480156104ea57600080fd5b506102656104f93660046141b2565b611f2c565b34801561050a57600080fd5b50610265610519366004614199565b611fcd565b34801561052a57600080fd5b5061027a610539366004614199565b6000908152600a602052604090205490565b34801561055757600080fd5b5061056061224d565b604051610284919061432e565b34801561057957600080fd5b5061034c7f000000000000000000000000000000000000000000000000000000000000000081565b3480156105ad57600080fd5b5061027a6105bc366004614199565b6122af565b3480156105cd57600080fd5b506102656105dc366004614199565b612538565b3480156105ed57600080fd5b506103d46105fc366004614199565b6126df565b34801561060d57600080fd5b5061026561061c3660046141b2565b612711565b34801561062d57600080fd5b5061027a60025481565b34801561064357600080fd5b5061027a610652366004614199565b60009081526003602052604090205490565b34801561067057600080fd5b5061026561067f36600461437b565b6127f5565b34801561069057600080fd5b506106a461069f366004614199565b61299d565b604051610284919061440d565b3480156106bd57600080fd5b506102656106cc366004614199565b6129b5565b3480156106dd57600080fd5b5061034c7f000000000000000000000000000000000000000000000000000000000000000081565b34801561071157600080fd5b5061027a6729a2241af62c000081565b34801561072d57600080fd5b5061026561073c36600461437b565b612a4c565b34801561074d57600080fd5b5061034c7f000000000000000000000000000000000000000000000000000000000000000081565b34801561078157600080fd5b5061027a61079036600461441b565b612b48565b3480156107a157600080fd5b506102656107b0366004614447565b612e6c565b3480156107c157600080fd5b506102656107d0366004614199565b612f34565b3480156107e157600080fd5b506102656107f036600461437b565b61301e565b34801561080157600080fd5b50610265610810366004614199565b613344565b34801561082157600080fd5b5061034c610830366004614199565b61354d565b34801561084157600080fd5b50610855610850366004614199565b613577565b6040516102849190614469565b34801561086e57600080fd5b5061088261087d366004614199565b61375c565b604051610284919061447c565b34801561089b57600080fd5b506103d46108aa366004614199565b613850565b3480156108bb57600080fd5b506102656108ca366004614199565b6138ad565b60405163673448dd60e01b81523360048201526000907f00000000000000000000000000000000000000000000000000000000000000006001600160a01b03169063673448dd906024016020604051808303816000875af1158015610938573d6000803e3d6000fd5b505050506040513d601f19601f8201168201806040525081019061095c9190614587565b61097957604051631245843960e11b815260040160405180910390fd5b6001600160a01b03881633148061099757506001600160a01b038816155b156109b557604051630e1a07f960e41b815260040160405180910390fd5b428410806109cf57506109cc426301e133806145b8565b84115b156109ed5760405163a06f135560e01b815260040160405180910390fd5b62278d00831115610a115760405163efc1cd9d60e01b815260040160405180910390fd5b6000610a1c87611909565b9050610a2c600680546001019055565b610a34613d62565b6006548160000181815250503381602001906001600160a01b031690816001600160a01b0316815250508981604001906001600160a01b031690816001600160a01b0316815250507f00000000000000000000000000000000000000000000000000000000000000006001600160a01b0316632492ca0e308360000151338e8e8e8e7f00000000000000000000000000000000000000000000000000000000000000008d6040518a63ffffffff1660e01b8152600401610afc999897969594939291906145cb565b6020604051808303816000875af1158015610b1b573d6000803e3d6000fd5b505050506040513d601f19601f82011682018060405250810190610b3f9190614641565b6001600160a01b03908116606083019081528a82166080840190815260c084018a815260e085018a815261010086018a815261016087018881526101a088018b905260a088018f8152885160009081526003602081815260408084208e90558c5184526007808352938190208d518155918d015160018084018054928f166001600160a01b0319938416179055918e0151600284018054918f169183169190911790559a519282018054938d16938c1693909317909255975160048901805491909b1699169890981790985551600586015592516006850155905194830194909455925160088201556101208401516009820155610140840151600a8201559151600b830155610180830151600c8084018054869594919260ff199190911691908490811115610c7157610c716143d5565b02179055506101a0820151600d820190610c8b90826146e5565b5050506001600160a01b03891615610ebe576001600160a01b03891660009081526001602052604090205460ff16610cd6576040516350d96e4160e01b815260040160405180910390fd5b610ce088836145b8565b604051636eb1769f60e11b81523360048201523060248201526001600160a01b038b169063dd62ed3e90604401602060405180830381865afa158015610d2a573d6000803e3d6000fd5b505050506040513d601f19601f82011682018060405250810190610d4e91906147a5565b1015610d6d57604051631e8d55b560e01b815260040160405180910390fd5b3415610d8c5760405163f7ca14b760e01b815260040160405180910390fd5b6040516323b872dd60e01b81526000906001600160a01b038b16906323b872dd90610dbf903390309088906004016147be565b6020604051808303816000875af1158015610dde573d6000803e3d6000fd5b505050506040513d601f19601f82011682018060405250810190610e029190614587565b905080610e2257604051633a06d36960e01b815260040160405180910390fd5b60608201516040516323b872dd60e01b81526001600160a01b038c16916323b872dd91610e559133918e906004016147be565b6020604051808303816000875af1158015610e74573d6000803e3d6000fd5b505050506040513d601f19601f82011682018060405250810190610e989190614587565b905080610eb857604051633a06d36960e01b815260040160405180910390fd5b50610f62565b610ec888836145b8565b341015610ee85760405163438015f160e11b815260040160405180910390fd5b600081606001516001600160a01b03168960405160006040518083038185875af1925050503d8060008114610f39576040519150601f19603f3d011682016040523d82523d6000602084013e610f3e565b606091505b5050905080610f6057604051633a06d36960e01b815260040160405180910390fd5b505b80604001516001600160a01b031681602001516001600160a01b031682600001517f89d08535246e9977769e1f3a9c7b5cf99c9ea6c5c7362972d02f1d0598fba5e060405160405180910390a4519998505050505050505050565b6000610fc88561375c565b905080606001516001600160a01b0316336001600160a01b031614611000576040516355177e0560e11b815260040160405180910390fd5b6060810151815160408051868152602081018690526001600160a01b0393841693881692917f02799480a46b2e9fb3a9bd1b9c4b96a0db67c1e2fab22b72ad91ca98563ea841910160405180910390a45050505050565b600081815260076020819052604090912090600c8083015460ff1690811115611082576110826143d5565b146110a057604051630deed35960e21b815260040160405180910390fd5b6000828152600a602052604080822054905163e3a96cbd60e01b815260048101919091527f00000000000000000000000000000000000000000000000000000000000000006001600160a01b03169063e3a96cbd90602401600060405180830381865afa158015611115573d6000803e3d6000fd5b505050506040513d6000823e601f3d908101601f1916820160405261113d91908101906148cc565b905060048161020001516007811115611158576111586143d5565b1461117657604051630cca7d0960e01b815260040160405180910390fd5b806101e00151156111bc578060a001516001600160a01b0316336001600160a01b0316146111b75760405163730ff49760e01b815260040160405180910390fd5b6111f2565b80608001516001600160a01b0316336001600160a01b0316146111f25760405163730ff49760e01b815260040160405180910390fd5b600c8201805460ff1916600a179055805182546040517f09c577c71ccc4cc75823eaa7c16ca5cbb309ba4f1ad490dbc980eff950abcba190600090a3505050565b336001600160a01b037f0000000000000000000000000000000000000000000000000000000000000000161461127c5760405163463a803d60e01b815260040160405180910390fd5b60005b6000548110156114b5576000600560008084815481106112a1576112a1614a22565b60009182526020808320909101546001600160a01b03168352820192909252604001812054815490916004918190869081106112df576112df614a22565b60009182526020808320909101546001600160a01b0316835282019290925260400190205461130e91906145b8565b905060006004600080858154811061132857611328614a22565b60009182526020808320909101546001600160a01b031683528201929092526040018120919091558054600590829081908690811061136957611369614a22565b60009182526020808320909101546001600160a01b0316835282019290925260400190205580156114ac5760008083815481106113a8576113a8614a22565b60009182526020909120015460405163a9059cbb60e01b81526001600160a01b038681166004830152602482018590529091169063a9059cbb906044016020604051808303816000875af1158015611404573d6000803e3d6000fd5b505050506040513d601f19601f820116820180604052508101906114289190614587565b90508061144857604051633a06d36960e01b815260040160405180910390fd5b7fdd4710e017d20a52587aa28f802f63ad6cc41763aa84044be2fa4fb7d5535484846000858154811061147d5761147d614a22565b6000918252602090912001546040516114a292916001600160a01b03169086906147be565b60405180910390a1505b5060010161127f565b5060008080527f05b8ccbb9d4d8fb16ea74ce3c29a41f1b461fbdaff4714a0d9a8eb05499746bc5460046020527f17ef568e3e12ab5b9c7254a8d58478811de00f9e6eb34345acd53bf8fd09d3ec5461150e91906145b8565b60008080527f17ef568e3e12ab5b9c7254a8d58478811de00f9e6eb34345acd53bf8fd09d3ec81905560056020527f05b8ccbb9d4d8fb16ea74ce3c29a41f1b461fbdaff4714a0d9a8eb05499746bc55905080156115dc576000826001600160a01b03168260405160006040518083038185875af1925050503d80600081146115b3576040519150601f19603f3d011682016040523d82523d6000602084013e6115b8565b606091505b50509050806115da57604051633a06d36960e01b815260040160405180910390fd5b505b604080516001600160a01b0384168152602081018390527f73f0bb5db87837ce5b08452b01ea465f1a90a2a99afc45d1a4f1d47ffb2d7d23910160405180910390a15050565b600081815260076020526040902060028101546001600160a01b0316331461165d5760405163f670cea160e01b815260040160405180910390fd5b6002600c8083015460ff1690811115611678576116786143d5565b1461169657604051630cd9cd6b60e41b815260040160405180910390fd5b600c8101805460ff191660041790554260098201556002810154600182015482546040516001600160a01b0393841693909216917ffbe48c274fc830d76ec1c5737a76be1b30e8bd4abcb89f41835e231728a603cd90600090a45050565b600081815260076020526040902060018101546001600160a01b0316331461172f576040516324f7ca9f60e01b815260040160405180910390fd5b6000600c8083015460ff169081111561174a5761174a6143d5565b1461176857604051635667b32960e11b815260040160405180910390fd5b60008281526003602052604081208054600c8401805460ff1916600117905581549092839291611799908490614a38565b909155505060048201546001600160a01b0316156118545760048281015460405163a9059cbb60e01b81523392810192909252602482018390526000916001600160a01b039091169063a9059cbb906044016020604051808303816000875af115801561180a573d6000803e3d6000fd5b505050506040513d601f19601f8201168201806040525081019061182e9190614587565b90508061184e57604051633a06d36960e01b815260040160405180910390fd5b506118bf565b604051600090339083908381818185875af1925050503d8060008114611896576040519150601f19603f3d011682016040523d82523d6000602084013e61189b565b606091505b50509050806118bd57604051633a06d36960e01b815260040160405180910390fd5b505b600282015460018301546040516001600160a01b03928316929091169085907fc84a323869aef99db06452008996ec94817140f29a3212b6b4037e07abb2856b90600090a4505050565b60008060646002548461191c9190614a4b565b6119269190614a62565b90506729a2241af62c000081101561194357506729a2241af62c00005b92915050565b60405163673448dd60e01b81523360048201527f00000000000000000000000000000000000000000000000000000000000000006001600160a01b03169063673448dd906024016020604051808303816000875af11580156119af573d6000803e3d6000fd5b505050506040513d601f19601f820116820180604052508101906119d39190614587565b6119f057604051631245843960e11b815260040160405180910390fd5b600081815260076020526040902060028101546001600160a01b03163314611a2b5760405163f670cea160e01b815260040160405180910390fd5b6000600c8083015460ff1690811115611a4657611a466143d5565b14611a645760405163b8ab625b60e01b815260040160405180910390fd5b6000828152600360209081526040808320546004858101546001600160a01b031685529092528220805491929091611a9d9084906145b8565b9091555050600082815260036020526040812055600c8101805460ff19166002179055600681015415611ce25760048101546001600160a01b031615611c41576006810154600480830154604051636eb1769f60e11b815233928101929092523060248301526001600160a01b03169063dd62ed3e90604401602060405180830381865afa158015611b33573d6000803e3d6000fd5b505050506040513d601f19601f82011682018060405250810190611b5791906147a5565b1015611b7657604051631e8d55b560e01b815260040160405180910390fd5b3415611b955760405163f7ca14b760e01b815260040160405180910390fd5b600480820154600383015460068401546040516323b872dd60e01b81526000946001600160a01b03948516946323b872dd94611bd89433949190921692016147be565b6020604051808303816000875af1158015611bf7573d6000803e3d6000fd5b505050506040513d601f19601f82011682018060405250810190611c1b9190614587565b905080611c3b57604051633a06d36960e01b815260040160405180910390fd5b50611ce2565b8060060154341015611c665760405163438015f160e11b815260040160405180910390fd5b600381015460068201546040516000926001600160a01b031691908381818185875af1925050503d8060008114611cb9576040519150601f19603f3d011682016040523d82523d6000602084013e611cbe565b606091505b5050905080611ce057604051633a06d36960e01b815260040160405180910390fd5b505b8060030160009054906101000a90046001600160a01b03166001600160a01b031663cbaaabdc6040518163ffffffff1660e01b81526004016020604051808303816000875af1158015611d39573d6000803e3d6000fd5b505050506040513d601f19601f82011682018060405250810190611d5d9190614587565b611d6657600080fd5b600281015460018201546040516001600160a01b03928316929091169084907fd1fc106fdba12b6c639ca9f0001c49fe68c1b701a777d564018c99f7193eb3bd90600090a45050565b606060096000838152602001908152602001600020805480602002602001604051908101604052809291908181526020016000905b82821015611f215760008481526020908190206040805161014081018252600886029092018054835260018101549383019390935260028301549082015260038201546001600160a01b0316606082015260048201546080820152600582015460a0820152600682015460ff808216151560c08401526101008083048216151560e0850152620100009092041615159082015260078201805491929161012084019190611e909061465e565b80601f0160208091040260200160405190810160405280929190818152602001828054611ebc9061465e565b8015611f095780601f10611ede57610100808354040283529160200191611f09565b820191906000526020600020905b815481529060010190602001808311611eec57829003601f168201915b50505050508152505081526020019060010190611de4565b505050509050919050565b336001600160a01b037f00000000000000000000000000000000000000000000000000000000000000001614611f755760405163463a803d60e01b815260040160405180910390fd5b6001600160a01b038116600081815260016020908152604091829020805460ff1916905590519182527ff3f339312eadf076716643b0d29a97871056e9b21dc50fac35a10231ef5d087991015b60405180910390a150565b611fd681613850565b611ff35760405163725b1e9960e01b815260040160405180910390fd5b600081815260076020526040902060018101546001600160a01b0316331480159061202b575060028101546001600160a01b03163314155b156120495760405163f2a9eb0f60e01b815260040160405180910390fd5b6003600c8083015460ff1690811115612064576120646143d5565b1415801561208b57506006600c8083015460ff1690811115612088576120886143d5565b14155b80156120b057506007600c8083015460ff16908111156120ad576120ad6143d5565b14155b156120ce5760405163a6b04c9b60e01b815260040160405180910390fd5b600082815260096020526040812080546120ea90600190614a38565b815481106120fa576120fa614a22565b60009182526020909120600184015460089092020191506001600160a01b03163314801561213157506006810154610100900460ff165b8061215d575060028201546001600160a01b03163314801561215d5750600681015462010000900460ff165b1561217b576040516330a4953f60e11b815260040160405180910390fd5b60018201546001600160a01b031633036121a15760068101805461ff0019166101001790555b60028201546001600160a01b031633036121c95760068101805462ff00001916620100001790555b6007600c8084015460ff16908111156121e4576121e46143d5565b036121f45781546121f490613979565b600c8201805460ff191660091790556002820154600183015483546040516001600160a01b0393841693909216917f305f076945eb1d9c44667df6d95693b375032a831dd88c0d5f6acdde6493ee5090600090a4505050565b606060008054806020026020016040519081016040528092919081815260200182805480156122a557602002820191906000526020600020905b81546001600160a01b03168152600190910190602001808311612287575b5050505050905090565b600081815260076020526040812060018101546001600160a01b031633148015906122e7575060028101546001600160a01b03163314155b156123055760405163f2a9eb0f60e01b815260040160405180910390fd5b6007600c8083015460ff1690811115612320576123206143d5565b1461233e57604051630deed35960e21b815260040160405180910390fd5b6000838152600a602052604080822054905163e3a96cbd60e01b815260048101919091527f00000000000000000000000000000000000000000000000000000000000000006001600160a01b03169063e3a96cbd90602401600060405180830381865afa1580156123b3573d6000803e3d6000fd5b505050506040513d6000823e601f3d908101601f191682016040526123db91908101906148cc565b9050600481610200015160078111156123f6576123f66143d5565b1461241457604051630cca7d0960e01b815260040160405180910390fd5b6101a08101516124289062093a80906145b8565b421061244757604051635586223160e11b815260040160405180910390fd5b600c8201805460ff191660081790556040516307e69b7b60e41b8152600481018590526000906001600160a01b037f00000000000000000000000000000000000000000000000000000000000000001690637e69b7b0906024016020604051808303816000875af11580156124c0573d6000803e3d6000fd5b505050506040513d601f19601f820116820180604052508101906124e491906147a5565b6000868152600a60209081526040918290208390559051338152919250829187917f73901cae9be4e0ef47f2f4b06e95e857e2d0d5be1ece92d577ae2a2d302b99f5910160405180910390a3949350505050565b600081815260076020526040902060018101546001600160a01b03163314801590612570575060028101546001600160a01b03163314155b1561258e5760405163f2a9eb0f60e01b815260040160405180910390fd5b6007600c8083015460ff16908111156125a9576125a96143d5565b146125c757604051630deed35960e21b815260040160405180910390fd5b6000828152600a602052604080822054905163e3a96cbd60e01b815260048101919091527f00000000000000000000000000000000000000000000000000000000000000006001600160a01b03169063e3a96cbd90602401600060405180830381865afa15801561263c573d6000803e3d6000fd5b505050506040513d6000823e601f3d908101601f1916820160405261266491908101906148cc565b90506006816102000151600781111561267f5761267f6143d5565b1461269d5760405163024dc1af60e41b815260040160405180910390fd5b600c828101805460ff19169091179055805160405184907f8bf954ae6fadc9841573f33c4daddeca60be06ced7ffeb313da02b296d45192b90600090a3505050565b600060076000838152600760205260409020600c9081015460ff169081111561270a5761270a6143d5565b1492915050565b336001600160a01b037f0000000000000000000000000000000000000000000000000000000000000000161461275a5760405163463a803d60e01b815260040160405180910390fd5b60008054600180820183557f290decd9548b62a8d60345a988386fc84ba6bc95484008f6362f93160ef3e56390910180546001600160a01b0319166001600160a01b038516908117909155825260208190526040909120805460ff191690911790556040516001600160a01b03821681527f8ffbc0e86f3bfcd7f06834c8d580a7cdff97190b4b9dc1a236a57d4ca7fc2a4390602001611fc2565b600084815260076020526040902060018101546001600160a01b03163314612830576040516324f7ca9f60e01b815260040160405180910390fd5b6002600c8083015460ff169081111561284b5761284b6143d5565b1415801561287257506004600c8083015460ff169081111561286f5761286f6143d5565b14155b156128905760405163fc91d07d60e01b815260040160405180910390fd5b6002600c8083015460ff16908111156128ab576128ab6143d5565b1480156128bb5750806007015442105b156128d957604051630e347fdf60e11b815260040160405180910390fd5b6004600c8083015460ff16908111156128f4576128f46143d5565b14801561291357508060080154816009015461291091906145b8565b42115b156129305760405162a0cf2f60e61b815260040160405180910390fd5b600c8101805460ff1916600617905542600a82015561295185858585613ad0565b600281015460018201546040516001600160a01b03928316929091169087907f09dea9fa4034ce4408cd7418e0dc093ad1653ed9bc617e32586a23c30ab0210a90600090a45050505050565b6000806129a98361375c565b61018001519392505050565b336001600160a01b037f000000000000000000000000000000000000000000000000000000000000000016146129fe5760405163463a803d60e01b815260040160405180910390fd5b600081118015612a0e5750600a81105b612a1757600080fd5b60028190556040518181527f4dc19bee59d946f6ef641e4c0b49e80cdc0158ba37b9a1143b05a70106ef3d9390602001611fc2565b600084815260076020526040902060018101546001600160a01b03163314801590612a84575060028101546001600160a01b03163314155b15612aa25760405163f2a9eb0f60e01b815260040160405180910390fd5b6002600c8083015460ff1690811115612abd57612abd6143d5565b14612adb57604051630cd9cd6b60e41b815260040160405180910390fd5b600c8101805460ff1916600317905542600a820155612afc85858585613ad0565b600281015460018201546040516001600160a01b03928316929091169087907f0d143c6bc10c47b6bbc4c9be761bb1a3f382c8c9ab7b4e01fde20982f2ba378490600090a45050505050565b600083815260076020526040812060018101546001600160a01b03163314801590612b80575060028101546001600160a01b03163314155b15612b9e5760405163f2a9eb0f60e01b815260040160405180910390fd5b6006600c8083015460ff1690811115612bb957612bb96143d5565b14158015612be057506003600c8083015460ff1690811115612bdd57612bdd6143d5565b14155b15612bfe5760405163012b688b60e61b815260040160405180910390fd5b600a810154612c119062093a80906145b8565b421015612c315760405163cc1ec16760e01b815260040160405180910390fd5b600c8101805460ff1916600717905560008581526009602052604081208054612c5c90600190614a38565b81548110612c6c57612c6c614a22565b6000918252602090912060089091020160068101805460ff191690556005830154909150851115612cb057604051633577fcff60e01b815260040160405180910390fd5b8160060154841115612cd5576040516387f713f360e01b815260040160405180910390fd5b815460018301546000916001600160a01b037f0000000000000000000000000000000000000000000000000000000000000000811692630872ab9892918a918a9133911614612d315760028801546001600160a01b0316612d40565b60018801546001600160a01b03165b60018901546001600160a01b03163314612d675760018901546001600160a01b0316612d76565b60028901546001600160a01b03165b6040516001600160e01b031960e088901b1681526004810195909552602485019390935260448401919091526001600160a01b03908116606484015216608482015260a4016020604051808303816000875af1158015612dda573d6000803e3d6000fd5b505050506040513d601f19601f82011682018060405250810190612dfe91906147a5565b6000888152600a602090815260409182902083905560028601546001870154875493518581529495506001600160a01b0391821694911692917f229302495453626ae227164708754d6748605e62feab37e19b38c09d4bc66276910160405180910390a49695505050505050565b6000612e778361375c565b905080606001516001600160a01b0316336001600160a01b031614612eaf5760405163507dce0360e01b815260040160405180910390fd5b60808101516001600160a01b031660009081526005602052604081208054849290612edb9084906145b8565b9091555050608081015160405184917f2acb88877bbfde9d61dd54d01a8c0749300152006f6c281732cba674a949b98e91612f27918682526001600160a01b0316602082015260400190565b60405180910390a2505050565b600081815260076020526040902060028101546001600160a01b03163314612f6f5760405163f670cea160e01b815260040160405180910390fd5b6004600c8083015460ff1690811115612f8a57612f8a6143d5565b141580612fa9575080600801548160090154612fa691906145b8565b42105b15612fc657604051622ba83360e51b815260040160405180910390fd5b600c8101805460ff1916600b179055600281015460018201546040516001600160a01b03928316929091169084907f648144d6cc0db632d7c3c4e2af81aed3393dce71be0a3543330b1aef3ba9a75090600090a45050565b600084815260076020818152604080842081516101c0810183528154815260018201546001600160a01b0390811694820194909452600282015484169281019290925260038101548316606083015260048101549092166080820152600582015460a0820152600682015460c08201529181015460e083015260088101546101008301526009810154610120830152600a810154610140830152600b810154610160830152600c8082015461018084019160ff909116908111156130e4576130e46143d5565b600c8111156130f5576130f56143d5565b8152602001600d820180546131099061465e565b80601f01602080910402602001604051908101604052809291908181526020018280546131359061465e565b80156131825780601f1061315757610100808354040283529160200191613182565b820191906000526020600020905b81548152906001019060200180831161316557829003601f168201915b505050505081525050905080602001516001600160a01b0316336001600160a01b0316141580156131c9575080604001516001600160a01b0316336001600160a01b031614155b156131e75760405163f2a9eb0f60e01b815260040160405180910390fd5b6007816101800151600c811115613200576132006143d5565b1461321e57604051630deed35960e21b815260040160405180910390fd5b80516000908152600a602052604080822054905163e3a96cbd60e01b815260048101919091527f00000000000000000000000000000000000000000000000000000000000000006001600160a01b03169063e3a96cbd90602401600060405180830381865afa158015613295573d6000803e3d6000fd5b505050506040513d6000823e601f3d908101601f191682016040526132bd91908101906148cc565b9050600081610200015160078111156132d8576132d86143d5565b146132f657604051634780eae160e01b815260040160405180910390fd5b61330286868686613ad0565b6000868152600a602052604090205460405187907ff1f1c2799c134622b93e2d30978a7af3c8e978be5ace4a17e2cc69b506d1bf8d90600090a3505050505050565b600081815260076020526040902060018101546001600160a01b0316331480159061337c575060028101546001600160a01b03163314155b1561339a5760405163f2a9eb0f60e01b815260040160405180910390fd5b6007600c8083015460ff16908111156133b5576133b56143d5565b146133d357604051630deed35960e21b815260040160405180910390fd5b6000828152600a602052604080822054905163e3a96cbd60e01b815260048101919091527f00000000000000000000000000000000000000000000000000000000000000006001600160a01b03169063e3a96cbd90602401600060405180830381865afa158015613448573d6000803e3d6000fd5b505050506040513d6000823e601f3d908101601f1916820160405261347091908101906148cc565b90506004816102000151600781111561348b5761348b6143d5565b141580156134b05750600581610200015160078111156134ad576134ad6143d5565b14155b156134ce57604051630cca7d0960e01b815260040160405180910390fd5b806101c0015161350c576101a08101516134ec9062093a80906145b8565b42101561350c57604051635d51601560e11b815260040160405180910390fd5b600c8201805460ff1916600a179055805160405184907f09c577c71ccc4cc75823eaa7c16ca5cbb309ba4f1ad490dbc980eff950abcba190600090a3505050565b6000818154811061355d57600080fd5b6000918252602090912001546001600160a01b0316905081565b6135dc60405180610140016040528060008152602001600081526020016000815260200160006001600160a01b031681526020016000815260200160008152602001600015158152602001600015158152602001600015158152602001606081525090565b6135e582613850565b6136025760405163725b1e9960e01b815260040160405180910390fd5b6000828152600960205260409020805461361e90600190614a38565b8154811061362e5761362e614a22565b6000918252602091829020604080516101408101825260089093029091018054835260018101549383019390935260028301549082015260038201546001600160a01b0316606082015260048201546080820152600582015460a0820152600682015460ff808216151560c08401526101008083048216151560e08501526201000090920416151590820152600782018054919291610120840191906136d39061465e565b80601f01602080910402602001604051908101604052809291908181526020018280546136ff9061465e565b801561374c5780601f106137215761010080835404028352916020019161374c565b820191906000526020600020905b81548152906001019060200180831161372f57829003601f168201915b5050505050815250509050919050565b613764613d62565b60008281526007602081815260409283902083516101c0810185528154815260018201546001600160a01b0390811693820193909352600282015483169481019490945260038101548216606085015260048101549091166080840152600581015460a0840152600681015460c08401529081015460e083015260088101546101008301526009810154610120830152600a810154610140830152600b810154610160830152600c8082015461018084019160ff9091169081111561382b5761382b6143d5565b600c81111561383c5761383c6143d5565b8152602001600d820180546136d39061465e565b60008061385c83611daf565b905060008151118015613896575080600182516138799190614a38565b8151811061388957613889614a22565b602002602001015160c001515b156138a45750600192915050565b50600092915050565b600081815260076020526040902060018101546001600160a01b031633146138e8576040516324f7ca9f60e01b815260040160405180910390fd5b6004600c8083015460ff1690811115613903576139036143d5565b1461392157604051633f4de0bd60e01b815260040160405180910390fd5b600c8101805460ff191660051790556002810154600182015482546040516001600160a01b0393841693909216917fa114c7e90e4eec756d1912c14ef8f687b646824db86f82efde72d1d2f391ce9c90600090a45050565b6000818152600a602052604080822054905163e3a96cbd60e01b815260048101919091527f00000000000000000000000000000000000000000000000000000000000000006001600160a01b03169063e3a96cbd90602401600060405180830381865afa1580156139ee573d6000803e3d6000fd5b505050506040513d6000823e601f3d908101601f19168201604052613a1691908101906148cc565b905060008161020001516007811115613a3157613a316143d5565b14613a4f5760405163a6b04c9b60e01b815260040160405180910390fd5b805160405163028462fb60e21b815260048101919091527f00000000000000000000000000000000000000000000000000000000000000006001600160a01b031690630a118bec90602401600060405180830381600087803b158015613ab457600080fd5b505af1158015613ac8573d6000803e3d6000fd5b505050505050565b6000613adb8561375c565b90508060a00151841115613b0257604051633577fcff60e01b815260040160405180910390fd5b8060c00151831115613b27576040516387f713f360e01b815260040160405180910390fd5b613b35600880546001019055565b6000604051806101400160405280613b4c60085490565b8152602001878152602001428152602001336001600160a01b0316815260200186815260200185815260200160011515815260200183602001516001600160a01b0316336001600160a01b031614613ba5576000613ba8565b60015b1515815260200183604001516001600160a01b0316336001600160a01b031614613bd3576000613bd6565b60015b151581526020908101859052600088815260099091526040902080549192509015613c415780546000908290613c0e90600190614a38565b81548110613c1e57613c1e614a22565b60009182526020909120600890910201600601805460ff19169115159190911790555b80546001808201835560008381526020908190208551600890940201928355840151908201556040830151600282015560608301516003820180546001600160a01b0319166001600160a01b039092169190911790556080830151600482015560a0830151600582015560c083015160068201805460e08601516101008088015161ffff1990931694151561ff001916949094179015159093029290921762ff0000191662010000921515929092029190911790556101208301518391906007820190613d0e90826146e5565b50505060008781526009602052604090208154613d2d91908390613e06565b5060405187907f0a6af05212fc7965e7fdb78d41d8356743a64e7b7e3667d3bdfee2d37e144f7690600090a250505050505050565b604051806101c001604052806000815260200160006001600160a01b0316815260200160006001600160a01b0316815260200160006001600160a01b0316815260200160006001600160a01b03168152602001600081526020016000815260200160008152602001600081526020016000815260200160008152602001600081526020016000600c811115613df957613df96143d5565b8152602001606081525090565b828054828255906000526020600020906008028101928215613f0e5760005260206000209160080282015b82811115613f0e5782548255600180840154908301556002808401549083015560038084015490830180546001600160a01b0319166001600160a01b03909216919091179055600480840154908301556005808401549083015560068084018054918401805460ff938416151560ff19821681178355835461010090819004861615150261ff001990911661ffff19909216919091171780825591546201000090819004909316151590920262ff0000199091161790558282600780820190613efc90840182614a84565b50505091600801919060080190613e31565b50613f1a929150613f1e565b5090565b80821115613f1a57600080825560018201819055600282018190556003820180546001600160a01b0319169055600482018190556005820181905560068201805462ffffff19169055613f746007830182613f7d565b50600801613f1e565b508054613f899061465e565b6000825580601f10613f99575050565b601f016020900490600052602060002090810190613fb79190613fba565b50565b5b80821115613f1a5760008155600101613fbb565b6001600160a01b0381168114613fb757600080fd5b634e487b7160e01b600052604160045260246000fd5b604051610240810167ffffffffffffffff8111828210171561401e5761401e613fe4565b60405290565b604051601f8201601f1916810167ffffffffffffffff8111828210171561404d5761404d613fe4565b604052919050565b600067ffffffffffffffff82111561406f5761406f613fe4565b50601f01601f191660200190565b600082601f83011261408e57600080fd5b81356140a161409c82614055565b614024565b8181528460208386010111156140b657600080fd5b816020850160208301376000918101602001919091529392505050565b600080600080600080600060e0888a0312156140ee57600080fd5b87356140f981613fcf565b9650602088013561410981613fcf565b955060408801359450606088013593506080880135925060a0880135915060c088013567ffffffffffffffff81111561414157600080fd5b61414d8a828b0161407d565b91505092959891949750929550565b6000806000806080858703121561417257600080fd5b84359350602085013561418481613fcf565b93969395505050506040820135916060013590565b6000602082840312156141ab57600080fd5b5035919050565b6000602082840312156141c457600080fd5b81356141cf81613fcf565b9392505050565b60005b838110156141f15781810151838201526020016141d9565b50506000910152565b600081518084526142128160208601602086016141d6565b601f01601f19169290920160200192915050565b6000610140825184526020830151602085015260408301516040850152606083015161425d60608601826001600160a01b03169052565b506080830151608085015260a083015160a085015260c083015161428560c086018215159052565b5060e083015161429960e086018215159052565b5061010083810151151590850152610120808401518186018390526142c0838701826141fa565b9695505050505050565b600060208083016020845280855180835260408601915060408160051b87010192506020870160005b8281101561432157603f1988860301845261430f858351614226565b945092850192908501906001016142f3565b5092979650505050505050565b6020808252825182820181905260009190848201906040850190845b8181101561436f5783516001600160a01b03168352928401929184019160010161434a565b50909695505050505050565b6000806000806080858703121561439157600080fd5b843593506020850135925060408501359150606085013567ffffffffffffffff8111156143bd57600080fd5b6143c98782880161407d565b91505092959194509250565b634e487b7160e01b600052602160045260246000fd5b600d811061440957634e487b7160e01b600052602160045260246000fd5b9052565b6020810161194382846143eb565b60008060006060848603121561443057600080fd5b505081359360208301359350604090920135919050565b6000806040838503121561445a57600080fd5b50508035926020909101359150565b6020815260006141cf6020830184614226565b6020815281516020820152600060208301516144a360408401826001600160a01b03169052565b5060408301516001600160a01b03811660608401525060608301516001600160a01b03811660808401525060808301516001600160a01b03811660a08401525060a083015160c08381019190915283015160e08084019190915283015161010080840191909152830151610120808401919091528301516101408084019190915283015161016080840191909152830151610180808401919091528301516101a0614550818501836143eb565b8401516101c084810152905061456a6101e08401826141fa565b949350505050565b8051801515811461458257600080fd5b919050565b60006020828403121561459957600080fd5b6141cf82614572565b634e487b7160e01b600052601160045260246000fd5b80820180821115611943576119436145a2565b6001600160a01b038a81168252602082018a905288811660408301528781166060830152868116608083015260a0820186905260c08201859052831660e08201526101206101008201819052600090614626838201856141fa565b9c9b505050505050505050505050565b805161458281613fcf565b60006020828403121561465357600080fd5b81516141cf81613fcf565b600181811c9082168061467257607f821691505b60208210810361469257634e487b7160e01b600052602260045260246000fd5b50919050565b601f8211156146e0576000816000526020600020601f850160051c810160208610156146c15750805b601f850160051c820191505b81811015613ac8578281556001016146cd565b505050565b815167ffffffffffffffff8111156146ff576146ff613fe4565b6147138161470d845461465e565b84614698565b602080601f83116001811461474857600084156147305750858301515b600019600386901b1c1916600185901b178555613ac8565b600085815260208120601f198616915b8281101561477757888601518255948401946001909101908401614758565b50858210156147955787850151600019600388901b60f8161c191681555b5050505050600190811b01905550565b6000602082840312156147b757600080fd5b5051919050565b6001600160a01b039384168152919092166020820152604081019190915260600190565b80516008811061458257600080fd5b600082601f83011261480257600080fd5b8151602067ffffffffffffffff8083111561481f5761481f613fe4565b8260051b61482e838201614024565b938452858101830193838101908886111561484857600080fd5b84880192505b858310156148c0578251848111156148665760008081fd5b8801603f81018a136148785760008081fd5b85810151604061488a61409c83614055565b8281528c8284860101111561489f5760008081fd5b6148ae838a83018487016141d6565b8552505050918401919084019061484e565b98975050505050505050565b6000602082840312156148de57600080fd5b815167ffffffffffffffff808211156148f657600080fd5b90830190610240828603121561490b57600080fd5b614913613ffa565b8251815260208301516020820152604083015160408201526060830151606082015261494160808401614636565b608082015261495260a08401614636565b60a082015260c083015160c082015261496d60e08401614572565b60e0820152610100614980818501614572565b9082015261012083810151908201526101408084015190820152610160808401519082015261018080840151908201526101a080840151908201526101c06149c9818501614572565b908201526101e06149db848201614572565b908201526102006149ed8482016147e2565b908201526102208381015183811115614a0557600080fd5b614a11888287016147f1565b918301919091525095945050505050565b634e487b7160e01b600052603260045260246000fd5b81810381811115611943576119436145a2565b8082028115828204841417611943576119436145a2565b600082614a7f57634e487b7160e01b600052601260045260246000fd5b500490565b818103614a8f575050565b614a99825461465e565b67ffffffffffffffff811115614ab157614ab1613fe4565b614abf8161470d845461465e565b6000601f821160018114614af35760008315614adb5750848201545b600019600385901b1c1916600184901b178455614b58565b600085815260209020601f19841690600086815260209020845b83811015614b2d5782860154825560019586019590910190602001614b0d565b5085831015614b4b5781850154600019600388901b60f8161c191681555b50505060018360011b0184555b505050505056fea264697066735822122030f81493793d00bba6b74d3bdc25b8d0c97d9f62336f99985a49e3f82fe7cc7564736f6c63430008170033","linkReferences":{}},"methodIdentifiers":{"APPEAL_PERIOD()":"1b4ee539","CHANGE_ORDER_PERIOD()":"6b67c89f","ESCROW_FACTORY()":"be20c1cb","GOVERNOR()":"6dc0ae22","MEDIATION_SERVICE()":"aa42f726","WHITELIST()":"1bb7cc99","activateProject(uint256)":"41544a82","activeChangeOrder(uint256)":"f293abb0","appealDecision(uint256)":"727109a2","approveChangeOrder(uint256)":"60fcc027","approveProject(uint256)":"fc69d836","approveToken(address)":"80b2edd8","calculateNebulaiTxFee(uint256)":"33f83d49","cancelProject(uint256)":"24941147","challengeProject(uint256,uint256,uint256,string)":"94280aaa","changeOrderIds()":"369556c0","completeProject(uint256)":"2245f152","createProject(address,address,uint256,uint256,uint256,uint256,string)":"0cee1965","discontinueProject(uint256,uint256,uint256,string)":"b8e3e04f","disputeProject(uint256,uint256,uint256)":"c61bc023","erc20Tokens(uint256)":"e17640f4","escrowWithdrawnEvent(uint256,address,uint256,uint256)":"0e01129f","getActiveChangeOrder(uint256)":"ec8d435a","getChangeOrders(uint256)":"45f5c3cb","getCommissionFees(address)":"30cc6aff","getDisputeId(uint256)":"6a53da77","getErc20Tokens()":"6d036535","getProject(uint256)":"f0f3f2c8","getProjectStatus(uint256)":"9675c009","getTxFeesHeld(uint256)":"8a94ddd9","getTxFeesPaid(address)":"5ce15f37","isApprovedToken(address)":"2d5ad3d5","isDisputed(uint256)":"7ccc586e","minimumTxFee()":"b0433550","nebulaiTxFee()":"89e79db6","projectIds()":"5990419b","proposeSettlement(uint256,uint256,uint256,string)":"da2325c8","receiveCommission(uint256,uint256)":"d7d3a7f5","removeToken(address)":"5fa7b584","resolveByMediation(uint256)":"de708b7e","resolveDismissedCase(uint256)":"792d5f9e","reviewOverdue(uint256)":"d82f3530","setNebulaiTxFee(uint256)":"a76792cb","waiveAppeal(uint256)":"15415dc8","withdrawFees(address)":"164e68de"},"id":41}