{"abi":[{"type":"constructor","inputs":[{"name":"_governor","type":"address","internalType":"address"},{"name":"_mediatorPool","type":"address","internalType":"address"},{"name":"_vrfCoordinatorV2","type":"address","internalType":"address"},{"name":"_keyHash","type":"bytes32","internalType":"bytes32"},{"name":"_subscriptionId","type":"uint64","internalType":"uint64"},{"name":"_calculatedMarketplace","type":"address","internalType":"address"}],"stateMutability":"nonpayable"},{"type":"function","name":"DISCLOSURE_PERIOD","inputs":[],"outputs":[{"name":"","type":"uint24","internalType":"uint24"}],"stateMutability":"view"},{"type":"function","name":"GOVERNOR","inputs":[],"outputs":[{"name":"","type":"address","internalType":"address"}],"stateMutability":"view"},{"type":"function","name":"MARKETPLACE","inputs":[],"outputs":[{"name":"","type":"address","internalType":"address"}],"stateMutability":"view"},{"type":"function","name":"PANEL_DRAWING_MULTIPLIER_APPEAL","inputs":[],"outputs":[{"name":"","type":"uint256","internalType":"uint256"}],"stateMutability":"view"},{"type":"function","name":"PANEL_DRAWING_MULTIPLIER_NORMAL","inputs":[],"outputs":[{"name":"","type":"uint256","internalType":"uint256"}],"stateMutability":"view"},{"type":"function","name":"PANEL_SELECTION_PERIOD","inputs":[],"outputs":[{"name":"","type":"uint24","internalType":"uint24"}],"stateMutability":"view"},{"type":"function","name":"PANEL_SIZE_APPEAL","inputs":[],"outputs":[{"name":"","type":"uint256","internalType":"uint256"}],"stateMutability":"view"},{"type":"function","name":"PANEL_SIZE_NORMAL","inputs":[],"outputs":[{"name":"","type":"uint256","internalType":"uint256"}],"stateMutability":"view"},{"type":"function","name":"REVEAL_PERIOD","inputs":[],"outputs":[{"name":"","type":"uint24","internalType":"uint24"}],"stateMutability":"view"},{"type":"function","name":"VOTING_PERIOD","inputs":[],"outputs":[{"name":"","type":"uint24","internalType":"uint24"}],"stateMutability":"view"},{"type":"function","name":"VRF_COORDINATOR","inputs":[],"outputs":[{"name":"","type":"address","internalType":"contract VRFCoordinatorV2Interface"}],"stateMutability":"view"},{"type":"function","name":"acceptCase","inputs":[{"name":"_disputeId","type":"uint256","internalType":"uint256"}],"outputs":[],"stateMutability":"payable"},{"type":"function","name":"appeal","inputs":[{"name":"_projectId","type":"uint256","internalType":"uint256"}],"outputs":[{"name":"","type":"uint256","internalType":"uint256"}],"stateMutability":"nonpayable"},{"type":"function","name":"arbiter","inputs":[{"name":"","type":"uint256","internalType":"uint256"}],"outputs":[{"name":"","type":"address","internalType":"address"}],"stateMutability":"view"},{"type":"function","name":"assignAdditionalMediators","inputs":[{"name":"_disputeId","type":"uint256","internalType":"uint256"},{"name":"_additionalMediators","type":"address[]","internalType":"address[]"}],"outputs":[],"stateMutability":"nonpayable"},{"type":"function","name":"assignArbiter","inputs":[{"name":"_disputeId","type":"uint256","internalType":"uint256"},{"name":"_arbiter","type":"address","internalType":"address"}],"outputs":[],"stateMutability":"nonpayable"},{"type":"function","name":"breakTie","inputs":[{"name":"_disputeId","type":"uint256","internalType":"uint256"},{"name":"_arbiterVote","type":"bool","internalType":"bool"}],"outputs":[],"stateMutability":"nonpayable"},{"type":"function","name":"calculateMediationFee","inputs":[{"name":"isAppeal","type":"bool","internalType":"bool"}],"outputs":[{"name":"","type":"uint256","internalType":"uint256"}],"stateMutability":"view"},{"type":"function","name":"callbackGasLimit","inputs":[],"outputs":[{"name":"","type":"uint32","internalType":"uint32"}],"stateMutability":"view"},{"type":"function","name":"claimMediatorFees","inputs":[],"outputs":[],"stateMutability":"nonpayable"},{"type":"function","name":"commitVote","inputs":[{"name":"_disputeId","type":"uint256","internalType":"uint256"},{"name":"_commit","type":"bytes32","internalType":"bytes32"}],"outputs":[],"stateMutability":"nonpayable"},{"type":"function","name":"createDispute","inputs":[{"name":"_projectId","type":"uint256","internalType":"uint256"},{"name":"_adjustedProjectFee","type":"uint256","internalType":"uint256"},{"name":"_providerStakeForfeit","type":"uint256","internalType":"uint256"},{"name":"_claimant","type":"address","internalType":"address"},{"name":"_respondent","type":"address","internalType":"address"}],"outputs":[{"name":"","type":"uint256","internalType":"uint256"}],"stateMutability":"nonpayable"},{"type":"function","name":"dismissUnpaidCase","inputs":[{"name":"_disputeId","type":"uint256","internalType":"uint256"}],"outputs":[],"stateMutability":"nonpayable"},{"type":"function","name":"disputeIds","inputs":[],"outputs":[{"name":"_value","type":"uint256","internalType":"uint256"}],"stateMutability":"view"},{"type":"function","name":"drawAdditionalMediators","inputs":[{"name":"_disputeId","type":"uint256","internalType":"uint256"}],"outputs":[],"stateMutability":"nonpayable"},{"type":"function","name":"getCommit","inputs":[{"name":"_mediator","type":"address","internalType":"address"},{"name":"_disputeId","type":"uint256","internalType":"uint256"}],"outputs":[{"name":"","type":"bytes32","internalType":"bytes32"}],"stateMutability":"view"},{"type":"function","name":"getDispute","inputs":[{"name":"_disputeId","type":"uint256","internalType":"uint256"}],"outputs":[{"name":"","type":"tuple","internalType":"struct DataStructuresLibrary.Dispute","components":[{"name":"disputeId","type":"uint256","internalType":"uint256"},{"name":"projectId","type":"uint256","internalType":"uint256"},{"name":"adjustedProjectFee","type":"uint256","internalType":"uint256"},{"name":"providerStakeForfeit","type":"uint256","internalType":"uint256"},{"name":"claimant","type":"address","internalType":"address"},{"name":"respondent","type":"address","internalType":"address"},{"name":"mediationFee","type":"uint256","internalType":"uint256"},{"name":"feePaidClaimant","type":"bool","internalType":"bool"},{"name":"feePaidRespondent","type":"bool","internalType":"bool"},{"name":"disclosureStart","type":"uint256","internalType":"uint256"},{"name":"selectionStart","type":"uint256","internalType":"uint256"},{"name":"votingStart","type":"uint256","internalType":"uint256"},{"name":"revealStart","type":"uint256","internalType":"uint256"},{"name":"decisionRenderedDate","type":"uint256","internalType":"uint256"},{"name":"isAppeal","type":"bool","internalType":"bool"},{"name":"granted","type":"bool","internalType":"bool"},{"name":"phase","type":"uint8","internalType":"enum DataStructuresLibrary.Phase"},{"name":"evidence","type":"string[]","internalType":"string[]"}]}],"stateMutability":"view"},{"type":"function","name":"getFeesHeld","inputs":[{"name":"_disputeId","type":"uint256","internalType":"uint256"}],"outputs":[{"name":"","type":"uint256","internalType":"uint256"}],"stateMutability":"view"},{"type":"function","name":"getMediatorFeesOwed","inputs":[{"name":"_mediator","type":"address","internalType":"address"}],"outputs":[{"name":"","type":"uint256","internalType":"uint256"}],"stateMutability":"view"},{"type":"function","name":"getMediatorStakeHeld","inputs":[{"name":"_mediator","type":"address","internalType":"address"},{"name":"_disputeId","type":"uint256","internalType":"uint256"}],"outputs":[{"name":"","type":"uint256","internalType":"uint256"}],"stateMutability":"view"},{"type":"function","name":"getPanel","inputs":[{"name":"_disputeId","type":"uint256","internalType":"uint256"}],"outputs":[{"name":"","type":"tuple","internalType":"struct DataStructuresLibrary.Panel","components":[{"name":"drawnMediators","type":"address[]","internalType":"address[]"},{"name":"confirmedMediators","type":"address[]","internalType":"address[]"}]}],"stateMutability":"view"},{"type":"function","name":"getVote","inputs":[{"name":"_mediator","type":"address","internalType":"address"},{"name":"_disputeId","type":"uint256","internalType":"uint256"}],"outputs":[{"name":"","type":"bool","internalType":"bool"}],"stateMutability":"view"},{"type":"function","name":"hasRevealedVote","inputs":[{"name":"_mediator","type":"address","internalType":"address"},{"name":"_disputeId","type":"uint256","internalType":"uint256"}],"outputs":[{"name":"","type":"bool","internalType":"bool"}],"stateMutability":"view"},{"type":"function","name":"isConfirmedMediator","inputs":[{"name":"_disputeId","type":"uint256","internalType":"uint256"},{"name":"_mediator","type":"address","internalType":"address"}],"outputs":[{"name":"","type":"bool","internalType":"bool"}],"stateMutability":"view"},{"type":"function","name":"keyHash","inputs":[],"outputs":[{"name":"","type":"bytes32","internalType":"bytes32"}],"stateMutability":"view"},{"type":"function","name":"mediatorFlatFee","inputs":[],"outputs":[{"name":"","type":"uint256","internalType":"uint256"}],"stateMutability":"view"},{"type":"function","name":"mediatorPool","inputs":[],"outputs":[{"name":"","type":"address","internalType":"contract IMediatorPool"}],"stateMutability":"view"},{"type":"function","name":"mediatorsNeeded","inputs":[{"name":"disputeId","type":"uint256","internalType":"uint256"}],"outputs":[{"name":"","type":"uint256","internalType":"uint256"}],"stateMutability":"view"},{"type":"function","name":"numWords","inputs":[],"outputs":[{"name":"","type":"uint32","internalType":"uint32"}],"stateMutability":"view"},{"type":"function","name":"overdueCommit","inputs":[{"name":"_disputeId","type":"uint256","internalType":"uint256"}],"outputs":[],"stateMutability":"nonpayable"},{"type":"function","name":"overdueReveal","inputs":[{"name":"_disputeId","type":"uint256","internalType":"uint256"}],"outputs":[],"stateMutability":"nonpayable"},{"type":"function","name":"payMediationFee","inputs":[{"name":"_disputeId","type":"uint256","internalType":"uint256"},{"name":"_evidenceURIs","type":"string[]","internalType":"string[]"}],"outputs":[],"stateMutability":"payable"},{"type":"function","name":"rawFulfillRandomWords","inputs":[{"name":"requestId","type":"uint256","internalType":"uint256"},{"name":"randomWords","type":"uint256[]","internalType":"uint256[]"}],"outputs":[],"stateMutability":"nonpayable"},{"type":"function","name":"reclaimMediationFee","inputs":[{"name":"_disputeId","type":"uint256","internalType":"uint256"}],"outputs":[],"stateMutability":"nonpayable"},{"type":"function","name":"requestConfirmations","inputs":[],"outputs":[{"name":"","type":"uint16","internalType":"uint16"}],"stateMutability":"view"},{"type":"function","name":"requestDefaultDecision","inputs":[{"name":"_disputeId","type":"uint256","internalType":"uint256"}],"outputs":[],"stateMutability":"nonpayable"},{"type":"function","name":"revealVote","inputs":[{"name":"_disputeId","type":"uint256","internalType":"uint256"},{"name":"_vote","type":"bool","internalType":"bool"},{"name":"_salt","type":"string","internalType":"string"}],"outputs":[],"stateMutability":"nonpayable"},{"type":"function","name":"setMediatorFlatFee","inputs":[{"name":"_flatFee","type":"uint256","internalType":"uint256"}],"outputs":[],"stateMutability":"nonpayable"},{"type":"function","name":"settledExternally","inputs":[{"name":"_disputeId","type":"uint256","internalType":"uint256"}],"outputs":[],"stateMutability":"nonpayable"},{"type":"function","name":"submitAdditionalEvidence","inputs":[{"name":"_disputeId","type":"uint256","internalType":"uint256"},{"name":"_evidenceURIs","type":"string[]","internalType":"string[]"}],"outputs":[],"stateMutability":"nonpayable"},{"type":"function","name":"subscriptionId","inputs":[],"outputs":[{"name":"","type":"uint64","internalType":"uint64"}],"stateMutability":"view"},{"type":"function","name":"votesTied","inputs":[{"name":"","type":"uint256","internalType":"uint256"}],"outputs":[{"name":"","type":"bool","internalType":"bool"}],"stateMutability":"view"},{"type":"function","name":"vrfRequestToDispute","inputs":[{"name":"","type":"uint256","internalType":"uint256"}],"outputs":[{"name":"","type":"uint256","internalType":"uint256"}],"stateMutability":"view"},{"type":"event","name":"AdditionalMediatorDrawingInitiated","inputs":[{"name":"disputeId","type":"uint256","indexed":true,"internalType":"uint256"},{"name":"requestId","type":"uint256","indexed":false,"internalType":"uint256"}],"anonymous":false},{"type":"event","name":"AdditionalMediatorsAssigned","inputs":[{"name":"disputeId","type":"uint256","indexed":true,"internalType":"uint256"},{"name":"assignedMediators","type":"address[]","indexed":false,"internalType":"address[]"}],"anonymous":false},{"type":"event","name":"AppealCreated","inputs":[{"name":"disputeId","type":"uint256","indexed":true,"internalType":"uint256"},{"name":"originalDisputeId","type":"uint256","indexed":true,"internalType":"uint256"},{"name":"projectId","type":"uint256","indexed":false,"internalType":"uint256"}],"anonymous":false},{"type":"event","name":"ArbiterAssigned","inputs":[{"name":"disputeId","type":"uint256","indexed":true,"internalType":"uint256"},{"name":"arbiter","type":"address","indexed":true,"internalType":"address"}],"anonymous":false},{"type":"event","name":"ArbiterVote","inputs":[{"name":"disputeId","type":"uint256","indexed":true,"internalType":"uint256"},{"name":"arbiter","type":"address","indexed":true,"internalType":"address"},{"name":"vote","type":"bool","indexed":false,"internalType":"bool"}],"anonymous":false},{"type":"event","name":"CaseDismissed","inputs":[{"name":"disputeId","type":"uint256","indexed":true,"internalType":"uint256"}],"anonymous":false},{"type":"event","name":"DecisionReached","inputs":[{"name":"disputeId","type":"uint256","indexed":true,"internalType":"uint256"},{"name":"decision","type":"bool","indexed":false,"internalType":"bool"},{"name":"majorityVotes","type":"uint256","indexed":false,"internalType":"uint256"}],"anonymous":false},{"type":"event","name":"DefaultDecisionEntered","inputs":[{"name":"disputeId","type":"uint256","indexed":true,"internalType":"uint256"},{"name":"claimedBy","type":"address","indexed":true,"internalType":"address"},{"name":"decision","type":"bool","indexed":false,"internalType":"bool"}],"anonymous":false},{"type":"event","name":"DisputeCreated","inputs":[{"name":"disputeId","type":"uint256","indexed":true,"internalType":"uint256"},{"name":"projectId","type":"uint256","indexed":false,"internalType":"uint256"}],"anonymous":false},{"type":"event","name":"MediationFeePaid","inputs":[{"name":"disputeId","type":"uint256","indexed":true,"internalType":"uint256"},{"name":"user","type":"address","indexed":true,"internalType":"address"}],"anonymous":false},{"type":"event","name":"MediationFeeReclaimed","inputs":[{"name":"disputeId","type":"uint256","indexed":true,"internalType":"uint256"},{"name":"claimedBy","type":"address","indexed":true,"internalType":"address"},{"name":"amount","type":"uint256","indexed":false,"internalType":"uint256"}],"anonymous":false},{"type":"event","name":"MediatorConfirmed","inputs":[{"name":"disputeId","type":"uint256","indexed":true,"internalType":"uint256"},{"name":"mediatorAddress","type":"address","indexed":false,"internalType":"address"}],"anonymous":false},{"type":"event","name":"MediatorFeesClaimed","inputs":[{"name":"mediator","type":"address","indexed":true,"internalType":"address"},{"name":"amount","type":"uint256","indexed":false,"internalType":"uint256"}],"anonymous":false},{"type":"event","name":"MediatorRemoved","inputs":[{"name":"disputeId","type":"uint256","indexed":true,"internalType":"uint256"},{"name":"mediator","type":"address","indexed":true,"internalType":"address"}],"anonymous":false},{"type":"event","name":"OverdueReveal","inputs":[{"name":"disputeId","type":"uint256","indexed":true,"internalType":"uint256"},{"name":"deadlocked","type":"bool","indexed":false,"internalType":"bool"}],"anonymous":false},{"type":"event","name":"PanelDrawn","inputs":[{"name":"disputeId","type":"uint256","indexed":true,"internalType":"uint256"},{"name":"isRedraw","type":"bool","indexed":false,"internalType":"bool"}],"anonymous":false},{"type":"event","name":"PanelSelectionInitiated","inputs":[{"name":"disputeId","type":"uint256","indexed":true,"internalType":"uint256"},{"name":"requestId","type":"uint256","indexed":false,"internalType":"uint256"}],"anonymous":false},{"type":"event","name":"RevealInitiated","inputs":[{"name":"disputeId","type":"uint256","indexed":true,"internalType":"uint256"}],"anonymous":false},{"type":"event","name":"SettledExternally","inputs":[{"name":"disputeId","type":"uint256","indexed":true,"internalType":"uint256"}],"anonymous":false},{"type":"event","name":"VoteCommitted","inputs":[{"name":"disputeId","type":"uint256","indexed":true,"internalType":"uint256"},{"name":"mediator","type":"address","indexed":true,"internalType":"address"},{"name":"commit","type":"bytes32","indexed":false,"internalType":"bytes32"}],"anonymous":false},{"type":"event","name":"VoteRevealed","inputs":[{"name":"disputeId","type":"uint256","indexed":true,"internalType":"uint256"},{"name":"mediator","type":"address","indexed":true,"internalType":"address"},{"name":"vote","type":"bool","indexed":false,"internalType":"bool"}],"anonymous":false},{"type":"event","name":"VotingInitiated","inputs":[{"name":"disputeId","type":"uint256","indexed":true,"internalType":"uint256"}],"anonymous":false},{"type":"error","name":"MediationService__AlreadyConfirmedMediator","inputs":[]},{"type":"error","name":"MediationService__AlreadyRevealed","inputs":[]},{"type":"error","name":"MediationService__CannotRevealBeforeAllVotesCommitted","inputs":[]},{"type":"error","name":"MediationService__CaseNotDeadlocked","inputs":[]},{"type":"error","name":"MediationService__DisputeCannotBeAppealed","inputs":[]},{"type":"error","name":"MediationService__DisputeDoesNotExist","inputs":[]},{"type":"error","name":"MediationService__EvidenceCanNoLongerBeSubmitted","inputs":[]},{"type":"error","name":"MediationService__FeesNotOverdue","inputs":[]},{"type":"error","name":"MediationService__InitialSelectionPeriodStillOpen","inputs":[]},{"type":"error","name":"MediationService__InsufficientAmount","inputs":[]},{"type":"error","name":"MediationService__InsufficientMediatorStake","inputs":[]},{"type":"error","name":"MediationService__InvalidArbiter","inputs":[]},{"type":"error","name":"MediationService__InvalidCommit","inputs":[]},{"type":"error","name":"MediationService__InvalidMediator","inputs":[]},{"type":"error","name":"MediationService__MediationFeeAlreadyPaid","inputs":[]},{"type":"error","name":"MediationService__MediationFeeAlreadyReclaimed","inputs":[]},{"type":"error","name":"MediationService__MediationFeeCannotBeReclaimed","inputs":[]},{"type":"error","name":"MediationService__MediationFeeNotPaid","inputs":[]},{"type":"error","name":"MediationService__MediatorHasAlreadyCommmitedVote","inputs":[]},{"type":"error","name":"MediationService__MediatorSeatsFilled","inputs":[]},{"type":"error","name":"MediationService__NoMediatorFeesOwed","inputs":[]},{"type":"error","name":"MediationService__NoOverdueCommits","inputs":[]},{"type":"error","name":"MediationService__NotDrawnMediator","inputs":[]},{"type":"error","name":"MediationService__OnlyAdmin","inputs":[]},{"type":"error","name":"MediationService__OnlyDisputant","inputs":[]},{"type":"error","name":"MediationService__OnlyDuringDisclosure","inputs":[]},{"type":"error","name":"MediationService__OnlyDuringPanelSelection","inputs":[]},{"type":"error","name":"MediationService__OnlyDuringReveal","inputs":[]},{"type":"error","name":"MediationService__OnlyGovernor","inputs":[]},{"type":"error","name":"MediationService__OnlyMarketplace","inputs":[]},{"type":"error","name":"MediationService__OnlyPrevailingParty","inputs":[]},{"type":"error","name":"MediationService__PanelAlreadyRedrawn","inputs":[]},{"type":"error","name":"MediationService__PanelNotRedrawn","inputs":[]},{"type":"error","name":"MediationService__ProjectHasOpenDispute","inputs":[]},{"type":"error","name":"MediationService__ProjectIsNotDisputed","inputs":[]},{"type":"error","name":"MediationService__RevealDoesNotMatchCommit","inputs":[]},{"type":"error","name":"MediationService__RevealPeriodStillActive","inputs":[]},{"type":"error","name":"MediationService__TransferFailed","inputs":[]},{"type":"error","name":"MediationService__VoteHasNotBeenRevealed","inputs":[]},{"type":"error","name":"MediationService__VotingPeriodStillActive","inputs":[]},{"type":"error","name":"OnlyCoordinatorCanFulfill","inputs":[{"name":"have","type":"address","internalType":"address"},{"name":"want","type":"address","internalType":"address"}]}],"bytecode":{"object":"0x6101006040526801158e460913d0000060015560048054600160401b600160901b0319166e02000c3500000300000000000000001790553480156200004357600080fd5b506040516200527c3803806200527c8339810160408190526200006691620000e4565b6001600160a01b03938416608081905295841660a052600080546001600160a01b0319169585169590951790945560e094909452600355600480546001600160401b0319166001600160401b03909416939093179092551660c0526200016a565b80516001600160a01b0381168114620000df57600080fd5b919050565b60008060008060008060c08789031215620000fe57600080fd5b6200010987620000c7565b95506200011960208801620000c7565b94506200012960408801620000c7565b6060880151608089015191955093506001600160401b03811681146200014e57600080fd5b91506200015e60a08801620000c7565b90509295509295509295565b60805160a05160c05160e0516150a0620001dc6000396000818161033101526139f2015260008181610a2801528181610a5701528181610d12015261190001526000818161061901528181610f9701528181612c600152612f4c015260008181610dfb0152610e3d01526150a06000f3fe60806040526004361061031a5760003560e01c80638f2897d5116101ab578063b348ba73116100f7578063d93bacd911610095578063f2f617241161006f578063f2f61724146109ed578063f8ef138214610a03578063f983657a146108c5578063ffef3cf014610a1657600080fd5b8063d93bacd91461097c578063e026b7fb146109a9578063e3a96cbd146109c057600080fd5b8063cf1aa615116100d1578063cf1aa615146108f1578063d11f8c0814610911578063d40b7f7714610926578063d81334561461095c57600080fd5b8063b348ba73146108a5578063c3529f31146108c5578063cc7b11b9146108dc57600080fd5b8063a00724ff11610164578063a94939301161013e578063a949393014610824578063ac98b97214610839578063b0fb162f14610859578063b1610d7e1461088e57600080fd5b8063a00724ff146107c4578063a0d58f93146107e4578063a949259b1461080457600080fd5b80638f2897d5146106ea5780639119a62b1461070a57806394f178df1461072a5780639841436814610757578063986106fb146107845780639da69180146107a457600080fd5b806340b7a5821161026a5780636b0dd90f116102235780637ccfd7fc116101fd5780637ccfd7fc1461065b5780637e69b7b01461067f578063855244a01461069f5780638a497cc6146106bf57600080fd5b80636b0dd90f146105e75780636dc0ae221461060757806374f785ee1461063b57600080fd5b806340b7a5821461055e5780634100f708146104b05780634b875b551461057e5780634dce966a146105915780634dfe57e1146105b157806361728f39146105d157600080fd5b80631065ebda116102d75780631fe543e3116102b15780631fe543e3146104c557806324f74697146104e55780632ef048a31461051e578063333318831461053e57600080fd5b80631065ebda1461045a5780631895c6511461047a57806318991f6b146104b057600080fd5b806305f6a9241461031f5780630872ab981461037057806309c1ba2e1461039e5780630a118bec146103d85780630ba26139146103fa5780630d3377c71461041a575b600080fd5b34801561032b57600080fd5b506103537f000000000000000000000000000000000000000000000000000000000000000081565b6040516001600160a01b0390911681526020015b60405180910390f35b34801561037c57600080fd5b5061039061038b366004614689565b610a4a565b604051908152602001610367565b3480156103aa57600080fd5b506004546103bf9067ffffffffffffffff1681565b60405167ffffffffffffffff9091168152602001610367565b3480156103e457600080fd5b506103f86103f33660046146df565b610d07565b005b34801561040657600080fd5b50610390610415366004614706565b610d9f565b34801561042657600080fd5b5061044a6104353660046146df565b600e6020526000908152604090205460ff1681565b6040519015158152602001610367565b34801561046657600080fd5b5061039061047536600461472a565b610dc8565b34801561048657600080fd5b50610390610495366004614756565b6001600160a01b03166000908152600d602052604090205490565b3480156104bc57600080fd5b50610390600381565b3480156104d157600080fd5b506103f86104e0366004614789565b610df0565b3480156104f157600080fd5b5060045461050990600160501b900463ffffffff1681565b60405163ffffffff9091168152602001610367565b34801561052a57600080fd5b506103f86105393660046146df565b610e7c565b34801561054a57600080fd5b506103f861055936600461489f565b610f82565b34801561056a57600080fd5b50600054610353906001600160a01b031681565b6103f861058c36600461489f565b61133a565b34801561059d57600080fd5b506103f86105ac3660046146df565b611587565b3480156105bd57600080fd5b5061044a6105cc36600461472a565b611666565b3480156105dd57600080fd5b5061039060035481565b3480156105f357600080fd5b5061044a61060236600461472a565b611691565b34801561061357600080fd5b506103537f000000000000000000000000000000000000000000000000000000000000000081565b34801561064757600080fd5b506103f86106563660046146df565b6116e6565b34801561066757600080fd5b5060045461050990600160701b900463ffffffff1681565b34801561068b57600080fd5b5061039061069a3660046146df565b6118f3565b3480156106ab57600080fd5b506103f86106ba3660046146df565b611c0b565b3480156106cb57600080fd5b506106d662093a8081565b60405162ffffff9091168152602001610367565b3480156106f657600080fd5b506103f86107053660046146df565b611e64565b34801561071657600080fd5b506103f86107253660046146df565b61212f565b34801561073657600080fd5b5061074a6107453660046146df565b6123ef565b6040516103679190614930565b34801561076357600080fd5b506103906107723660046146df565b60056020526000908152604090205481565b34801561079057600080fd5b506103f861079f36600461489f565b6124d8565b3480156107b057600080fd5b506103f86107bf366004614972565b612668565b3480156107d057600080fd5b506103f86107df366004614994565b6127dd565b3480156107f057600080fd5b506103906107ff3660046146df565b612a0e565b34801561081057600080fd5b506103f861081f366004614a1d565b612a37565b34801561083057600080fd5b506103f8612b40565b34801561084557600080fd5b5061039061085436600461472a565b612c23565b34801561086557600080fd5b5060045461087b90600160401b900461ffff1681565b60405161ffff9091168152602001610367565b34801561089a57600080fd5b506106d66205460081565b3480156108b157600080fd5b506103f86108c0366004614a4d565b612c4b565b3480156108d157600080fd5b506106d66203f48081565b3480156108e857600080fd5b50610390600581565b3480156108fd57600080fd5b5061044a61090c366004614a4d565b612ecf565b34801561091d57600080fd5b50610390600281565b34801561093257600080fd5b506103536109413660046146df565b600f602052600090815260409020546001600160a01b031681565b34801561096857600080fd5b506103f86109773660046146df565b612f41565b34801561098857600080fd5b506103906109973660046146df565b60009081526002602052604090205490565b3480156109b557600080fd5b506006546103909081565b3480156109cc57600080fd5b506109e06109db3660046146df565b612f9c565b6040516103679190614b32565b3480156109f957600080fd5b5061039060015481565b6103f8610a113660046146df565b613199565b348015610a2257600080fd5b506103537f000000000000000000000000000000000000000000000000000000000000000081565b6000336001600160a01b037f00000000000000000000000000000000000000000000000000000000000000001614610a9557604051631c94dd9760e31b815260040160405180910390fd5b604051636a53da7760e01b8152600481018790523390636a53da7790602401602060405180830381865afa158015610ad1573d6000803e3d6000fd5b505050506040513d601f19601f82011682018060405250810190610af59190614c62565b15610b1357604051635030fadd60e01b815260040160405180910390fd5b610b21600680546001019055565b6000610b2c60065490565b9050610b36614498565b8181526020810188905260408101879052606081018690526001600160a01b038086166080830152841660a0820152610b6f6000610d9f565b60c08201908152426101208301908152600084815260076020818152604092839020865181559086015160018201559185015160028301556060850151600383015560808501516004830180546001600160a01b039283166001600160a01b03199182161790915560a08701516005850180549190931691161790559251600682015560e08401518184018054610100808801511515810261ff0019941515851661ffff199384161717909255935160088401556101408601516009840155610160860151600a840155610180860151600b8401556101a0860151600c8401556101c0860151600d840180546101e08901511515909302911515909316919094161792909217808355610200850151859492939092909162ff000019169062010000908490811115610ca357610ca3614a72565b02179055506102208201518051610cc491600e84019160209091019061454e565b50506040518981528391507ffa71779ecc1dd1ef48196a5af1776f8a748036653ce2b5b310ab5e31b61ca32b9060200160405180910390a2509695505050505050565b336001600160a01b037f00000000000000000000000000000000000000000000000000000000000000001614610d5057604051631c94dd9760e31b815260040160405180910390fd5b600081815260076020526040808220600d8101805462ff00001916620700001790558054915190927f931f1a2ab95b7bbd44f6b1fd4f820a8c42a77eed1177aa040d3ecc7692fdc4ba91a25050565b600081610dba57600154610db4906003614c91565b92915050565b600154610db4906005614c91565b6001600160a01b03919091166000908152600a60209081526040808320938352929052205490565b336001600160a01b037f00000000000000000000000000000000000000000000000000000000000000001614610e6e5760405163073e64fd60e21b81523360048201526001600160a01b037f000000000000000000000000000000000000000000000000000000000000000016602482015260440160405180910390fd5b610e7882826133f4565b5050565b6000610e8782612f9c565b905060018161020001516007811115610ea257610ea2614a72565b14610ec05760405163e85c1def60e01b815260040160405180910390fd5b610140810151610ed4906203f48090614ca8565b421015610ef4576040516310b71d3560e21b815260040160405180910390fd5b6000610eff836123ef565b90506003610f0c84612a0e565b610f169190614c91565b8151511115610f385760405163d5d500db60e01b815260040160405180910390fd5b6000610f4384613985565b8351604051828152919250907f486a5e4a3475f9cc8baf912905ad92c6c2868a2bdf4e785b50a7e000597ae3639060200160405180910390a250505050565b604051630935e01b60e21b81523360048201527f00000000000000000000000000000000000000000000000000000000000000006001600160a01b0316906324d7806c906024016020604051808303816000875af1158015610fe8573d6000803e3d6000fd5b505050506040513d601f19601f8201168201806040525081019061100c9190614cbb565b6110295760405163249d95ab60e21b815260040160405180910390fd5b600061103484612f9c565b90506001816102000151600781111561104f5761104f614a72565b1461106d5760405163e85c1def60e01b815260040160405180910390fd5b610140810151611081906203f48090614ca8565b4210156110a1576040516310b71d3560e21b815260040160405180910390fd5b60008481526008602052604090206110b885612a0e565b6110c3906003614c91565b8154116110e35760405163d8168ced60e01b815260040160405180910390fd5b60005b838110156112f657825161111b9086868481811061110657611106614cd8565b905060200201602081019061090c9190614756565b156111385760405162d7182160e81b815260040160405180910390fd5b6000546001600160a01b03166366e305fd86868481811061115b5761115b614cd8565b90506020020160208101906111709190614756565b6040516001600160e01b031960e084901b1681526001600160a01b039091166004820152602401602060405180830381865afa1580156111b4573d6000803e3d6000fd5b505050506040513d601f19601f820116820180604052508101906111d89190614cbb565b6111f45760405162d7182160e81b815260040160405180910390fd5b82608001516001600160a01b031685858381811061121457611214614cd8565b90506020020160208101906112299190614756565b6001600160a01b0316148061127957508260a001516001600160a01b031685858381811061125957611259614cd8565b905060200201602081019061126e9190614756565b6001600160a01b0316145b156112965760405162d7182160e81b815260040160405180910390fd5b818585838181106112a9576112a9614cd8565b90506020020160208101906112be9190614756565b815460018082018455600093845260209093200180546001600160a01b0319166001600160a01b0392909216919091179055016110e6565b5081516040517f7b4c00990af217b5fd5850914568e2803760dcc1fab73902464c580805fe9d879061132b9087908790614cee565b60405180910390a25050505050565b600083815260076020526040902060048101546001600160a01b03163314801590611372575060058101546001600160a01b03163314155b1561139057604051634a77af9b60e11b815260040160405180910390fd5b60048101546001600160a01b0316331480156113b05750600781015460ff165b806113db575060058101546001600160a01b0316331480156113db57506007810154610100900460ff165b156113f957604051630d78545960e41b815260040160405180910390fd5b806006015434101561141e5760405163874a2deb60e01b815260040160405180910390fd5b60048101546001600160a01b0316331461144a5760078101805461ff001916610100179055600161145d565b60078101805460ff191660019081179091555b506000848152600260205260408120805434929061147c908490614ca8565b90915550600090505b828110156114de5781600e018484838181106114a3576114a3614cd8565b90506020028101906114b59190614d3c565b825460018101845560009384526020909320909201916114d59183614e0d565b50600101611485565b50604051339085907f674e02de93fe447826c06140b0d60c8e1008d2fcd376352de7f98f00553fbd4a90600090a3600781015460ff16801561152957506007810154610100900460ff165b1561158157600061153985613985565b600d8301805462ff000019166201000017905560405181815290915085907f8bca728f59a09519d6cf0a4c6de9081f086fbdbb21ceeda00f78282d49923a249060200161132b565b50505050565b600081815260076020526040812080549091036115b7576040516323e6121560e11b815260040160405180910390fd5b60088101546115ca9062093a8090614ca8565b4210156115ea5760405163bb4fd0ed60e01b815260040160405180910390fd5b600781015460ff168061160657506007810154610100900460ff165b1561162457604051630d78545960e41b815260040160405180910390fd5b600d8101805462ff000019166206000017905560405182907fba822c6c2752fc532b06182dbb93744cfc28337646621685da58cfb770615a2590600090a25050565b6001600160a01b03919091166000908152600c60209081526040808320938352929052205460ff1690565b600061169d8383611666565b6116ba57604051638f424b8760e01b815260040160405180910390fd5b506001600160a01b03919091166000908152600b60209081526040808320938352929052205460ff1690565b60008181526007602052604090206002600d82015462010000900460ff16600781111561171557611715614a72565b1461173357604051630fbab20760e01b815260040160405180910390fd5b600a810154611746906205460090614ca8565b4210156117665760405163b820da2960e01b815260040160405180910390fd5b600061177582600001546123ef565b905060005b8160200151518110156118e7576117b2826020015182815181106117a0576117a0614cd8565b60200260200101518460000154610dc8565b6000036118df5760006117e6836020015183815181106117d4576117d4614cd8565b60200260200101518560000154612c23565b905080600960008560200151858151811061180357611803614cd8565b60200260200101516001600160a01b03166001600160a01b03168152602001908152602001600020600086600001548152602001908152602001600020600082825461184f9190614ecd565b90915550506000805460408051638166639b60e01b815290516001600160a01b0390921692638166639b928592600480820193929182900301818588803b15801561189957600080fd5b505af11580156118ad573d6000803e3d6000fd5b50505050506118dd8460000154846020015184815181106118d0576118d0614cd8565b6020026020010151613a78565b505b60010161177a565b505042600a9091015550565b6000336001600160a01b037f0000000000000000000000000000000000000000000000000000000000000000161461193e57604051631c94dd9760e31b815260040160405180910390fd5b604051636a53da7760e01b8152600481018390526000903390636a53da7790602401602060405180830381865afa15801561197d573d6000803e3d6000fd5b505050506040513d601f19601f820116820180604052508101906119a19190614c62565b9050806000036119c4576040516323e6121560e11b815260040160405180910390fd5b60006119cf82612f9c565b9050806101c00151156119f557604051630ea68dc560e11b815260040160405180910390fd5b611a03600680546001019055565b6000611a0e60065490565b9050611a18614498565b8181526020810186905260408084015190820152606080840151908201526080808401516001600160a01b039081169183019190915260a0808501519091169082015260016101c08201819052611a6e90610d9f565b60c08201908152426101208301908152600084815260076020818152604092839020865181559086015160018201559185015160028301556060850151600383015560808501516004830180546001600160a01b039283166001600160a01b03199182161790915560a08701516005850180549190931691161790559251600682015560e08401518184018054610100808801511515810261ff0019941515851661ffff199384161717909255935160088401556101408601516009840155610160860151600a840155610180860151600b8401556101a0860151600c8401556101c0860151600d840180546101e08901511515909302911515909316919094161792909217808355610200850151859492939092909162ff000019169062010000908490811115611ba257611ba2614a72565b02179055506102208201518051611bc391600e84019160209091019061454e565b5090505083827f6f6f8ef57754c3fa3e31d1517c2252383ee71eda7fafc105ec9dec357b8bd94688604051611bfa91815260200190565b60405180910390a350949350505050565b600081815260076020526040902060048101546001600160a01b03163314801590611c43575060058101546001600160a01b03163314155b15611c6157604051634a77af9b60e11b815260040160405180910390fd5b6000600d82015462010000900460ff166007811115611c8257611c82614a72565b14611ca05760405163095f868960e21b815260040160405180910390fd5b60048101546001600160a01b03163303611cde57600781015460ff16611cd9576040516303ac1eaf60e61b815260040160405180910390fd5b611d08565b6007810154610100900460ff16611d08576040516303ac1eaf60e61b815260040160405180910390fd5b6008810154611d1b9062093a8090614ca8565b421015611d3b5760405163bb4fd0ed60e01b815260040160405180910390fd5b60048101546001600160a01b03163314611d6357600d8101805461ff00191690556000611d77565b600d8101805461ff00191661010017905560015b50600d8101805462ff00001916620500001790556000828152600260205260408120805491829190611da98380614ecd565b9091555050604051600090339083908381818185875af1925050503d8060008114611df0576040519150601f19603f3d011682016040523d82523d6000602084013e611df5565b606091505b5050905080611e175760405163062f129560e21b815260040160405180910390fd5b600d83015460405161010090910460ff1615158152339085907f09d2debba343a19ba341af646a7dca5450239af1faf2795158422b663bf6fe1f906020015b60405180910390a350505050565b6000611e6f82612f9c565b905080608001516001600160a01b0316336001600160a01b031614158015611ead57508060a001516001600160a01b0316336001600160a01b031614155b15611ecb57604051634a77af9b60e11b815260040160405180910390fd5b60048161020001516007811115611ee457611ee4614a72565b03611f7b57806101e001518015611f11575080608001516001600160a01b0316336001600160a01b031614155b15611f2f5760405163e375bbf960e01b815260040160405180910390fd5b806101e00151158015611f5857508060a001516001600160a01b0316336001600160a01b031614155b15611f765760405163e375bbf960e01b815260040160405180910390fd5b61203d565b60078161020001516007811115611f9457611f94614a72565b03612024578060e00151158015611fc0575080608001516001600160a01b0316336001600160a01b0316145b15611fde576040516303ac1eaf60e61b815260040160405180910390fd5b80610100015115801561200657508060a001516001600160a01b0316336001600160a01b0316145b15611f76576040516303ac1eaf60e61b815260040160405180910390fd5b6040516335ae40d760e11b815260040160405180910390fd5b60c08101516000838152600260205260409020541461206f57604051631b4d0d5760e01b815260040160405180910390fd5b600082815260026020526040812080549182919061208d8380614ecd565b9091555050604051600090339083908381818185875af1925050503d80600081146120d4576040519150601f19603f3d011682016040523d82523d6000602084013e6120d9565b606091505b50509050806120fb5760405163062f129560e21b815260040160405180910390fd5b604051828152339085907fc96ecea49db741689d80001e0d0b27e01af4cd47c854812729220bc13f148dad90602001611e56565b600061213a82612f9c565b90506003816102000151600781111561215557612155614a72565b146121735760405163f1147dc160e01b815260040160405180910390fd5b610180810151612187906203f48090614ca8565b4210156121a65760405162ce54eb60e21b815260040160405180910390fd5b6000806121b68360000151613e5b565b9150915060006121c98460000151612a0e565b90506000806121db86600001516123ef565b905060005b8160200151518110156122ec576122188260200151828151811061220657612206614cd8565b60200260200101518860000151611666565b6122e45760006122498360200151838151811061223757612237614cd8565b60200260200101518960000151612c23565b905080600960008560200151858151811061226657612266614cd8565b60200260200101516001600160a01b03166001600160a01b0316815260200190815260200160002060008a60000151815260200190815260200160002060008282546122b29190614ecd565b909155506122c290508185614ca8565b93506122e28860000151846020015184815181106118d0576118d0614cd8565b505b6001016121e0565b506122f8600284614ef6565b85118061230e575061230b600284614ef6565b84115b15612325578551612320908686613f30565b61239b565b85516000908152600e6020526040808220805460ff1916600117905581548151638166639b60e01b815291516001600160a01b0390911692638166639b9286926004808301939282900301818588803b15801561238157600080fd5b505af1158015612395573d6000803e3d6000fd5b50505050505b85516000818152600e602090815260409182902054915160ff909216151582527f663f6b5edf14fd8e9a1f2d638b2cf6c9ef1702b284a3548503631dab55273100910160405180910390a250505050505050565b604080518082018252606080825260208083018290526000858152600882528490208451815492830281018401865294850182815293949390928492849184018282801561246657602002820191906000526020600020905b81546001600160a01b03168152600190910190602001808311612448575b50505050508152602001600182018054806020026020016040519081016040528092919081815260200182805480156124c857602002820191906000526020600020905b81546001600160a01b031681526001909101906020018083116124aa575b5050505050815250509050919050565b600083815260076020526040902060048101546001600160a01b03163314801590612510575060058101546001600160a01b03163314155b1561252e57604051634a77af9b60e11b815260040160405180910390fd5b6000600d82015462010000900460ff16600781111561254f5761254f614a72565b1415801561257c57506001600d82015462010000900460ff16600781111561257957612579614a72565b14155b1561259a5760405163c3278ccb60e01b815260040160405180910390fd5b60048101546001600160a01b0316331480156125bb5750600781015460ff16155b806125e7575060058101546001600160a01b0316331480156125e757506007810154610100900460ff16155b15612605576040516303ac1eaf60e61b815260040160405180910390fd5b60005b828110156126615781600e0184848381811061262657612626614cd8565b90506020028101906126389190614d3c565b825460018101845560009384526020909320909201916126589183614e0d565b50600101612608565b5050505050565b6126723383610dc8565b15612690576040516306e9c79160e31b815260040160405180910390fd5b60008190036126b2576040516352ea2ee560e01b815260040160405180910390fd5b60006126bd836123ef565b905060008060005b83602001515181101561274d57836020015181815181106126e8576126e8614cd8565b60200260200101516001600160a01b0316336001600160a01b03160361270d57600192505b6127348460200151828151811061272657612726614cd8565b602002602001015187610dc8565b156127455761274282614f0a565b91505b6001016126c5565b508161276b5760405162d7182160e81b815260040160405180910390fd5b336000818152600a60209081526040808320898452825291829020879055905186815287917f1f4e2aa7825ef02e85293e2de66cfbcb326af2632b558996e546bb1ef3e8764d910160405180910390a36127c485612a0e565b6127cf826001614ca8565b106126615761266185614284565b6127e78433612ecf565b6128035760405162d7182160e81b815260040160405180910390fd5b600361280e85612f9c565b6102000151600781111561282457612824614a72565b1461284257604051638b7afab760e01b815260040160405180910390fd5b61284c3385611666565b1561286a5760405163039ef43f60e21b815260040160405180910390fd5b600083838360405160200161288193929190614f23565b6040516020818303038152906040528051906020012090506128a33386610dc8565b81146128c2576040516320056f9560e01b815260040160405180910390fd5b336000818152600b602090815260408083208984528252808320805460ff199081168a151517909155848452600c83528184208a85528352818420805490911660011790559282526009815282822088835290529081208054918291906129298380614ecd565b9091555050604051600090339083908381818185875af1925050503d8060008114612970576040519150601f19603f3d011682016040523d82523d6000602084013e612975565b606091505b50509050806129975760405163062f129560e21b815260040160405180910390fd5b6040518615158152339088907f943b1e1e6ea36d3a013c9f482eb56e6fec8904129c7ed1869bcfe1f04727cd4c9060200160405180910390a36000806129dc89613e5b565b915091506129e989612a0e565b6129f38284614ca8565b03612a0357612a03898383613f30565b505050505050505050565b6000818152600760205260408120600d015460ff16612a2f57506003919050565b506005919050565b6000612a4283612f9c565b905060038161020001516007811115612a5d57612a5d614a72565b14612a7b5760405163f1147dc160e01b815260040160405180910390fd5b80516000908152600f60205260409020546001600160a01b03163314612ab4576040516357ddaf0360e01b815260040160405180910390fd5b600080612ac48360000151613e5b565b9092509050600184151514612ae457612adc81614f0a565b905080612af1565b612aed82614f0a565b9150815b508251612aff908383613f30565b825160405185151581523391907fa5a9de73cf3f9d29d054f39da7accd87d436de283ca3c87c9741f45de110df859060200160405180910390a35050505050565b336000908152600d60205260409020546001811015612b725760405163699349c960e01b815260040160405180910390fd5b336000818152600d60205260408082208290555190919083908381818185875af1925050503d8060008114612bc3576040519150601f19603f3d011682016040523d82523d6000602084013e612bc8565b606091505b5050905080612bea5760405163062f129560e21b815260040160405180910390fd5b60405182815233907facd5f96b832959eb7c319fe5c6b73f994c12d0be1b278b2d99a5f1132bb72d5f9060200160405180910390a25050565b6001600160a01b03919091166000908152600960209081526040808320938352929052205490565b604051630935e01b60e21b81523360048201527f00000000000000000000000000000000000000000000000000000000000000006001600160a01b0316906324d7806c906024016020604051808303816000875af1158015612cb1573d6000803e3d6000fd5b505050506040513d601f19601f82011682018060405250810190612cd59190614cbb565b612cf25760405163249d95ab60e21b815260040160405180910390fd5b6000612cfd83612f9c565b80516000908152600e602052604090205490915060ff16612d315760405163161c44b560e21b815260040160405180910390fd5b60038161020001516007811115612d4a57612d4a614a72565b14612d685760405163f1147dc160e01b815260040160405180910390fd5b80608001516001600160a01b0316826001600160a01b03161480612da157508060a001516001600160a01b0316826001600160a01b0316145b15612dbf576040516357ddaf0360e01b815260040160405180910390fd5b6000546040516366e305fd60e01b81526001600160a01b038481166004830152909116906366e305fd90602401602060405180830381865afa158015612e09573d6000803e3d6000fd5b505050506040513d601f19601f82011682018060405250810190612e2d9190614cbb565b612e4a576040516357ddaf0360e01b815260040160405180910390fd5b8051612e569083612ecf565b15612e74576040516357ddaf0360e01b815260040160405180910390fd5b80516000908152600f602052604080822080546001600160a01b0319166001600160a01b0386169081179091558351915190927fe3a61425d5621880310412d6593b034f43dedb3aff8bfe44e10f779c8c99d39a91a3505050565b600080612edb846123ef565b905060005b816020015151811015612f365781602001518181518110612f0357612f03614cd8565b60200260200101516001600160a01b0316846001600160a01b031603612f2e57600192505050610db4565b600101612ee0565b506000949350505050565b336001600160a01b037f00000000000000000000000000000000000000000000000000000000000000001614612f8a57604051630fde994960e21b815260040160405180910390fd5b60008111612f9757600080fd5b600155565b612fa4614498565b600082815260076020818152604092839020835161024081018552815481526001820154928101929092526002810154938201939093526003830154606082015260048301546001600160a01b03908116608083015260058401541660a0820152600683015460c08201528282015460ff808216151560e084015261010091829004811615158284015260088501546101208401526009850154610140840152600a850154610160840152600b850154610180840152600c8501546101a0840152600d85015480821615156101c0850152918204811615156101e084015291939261020085019262010000909204909116908111156130a5576130a5614a72565b60078111156130b6576130b6614a72565b8152602001600e8201805480602002602001604051908101604052809291908181526020016000905b8282101561318b5783829060005260206000200180546130fe90614d83565b80601f016020809104026020016040519081016040528092919081815260200182805461312a90614d83565b80156131775780601f1061314c57610100808354040283529160200191613177565b820191906000526020600020905b81548152906001019060200180831161315a57829003601f168201915b5050505050815260200190600101906130df565b505050915250909392505050565b60008181526008602052604090206131b082612a0e565b6001820154106131d357604051638ee7667160e01b815260040160405180910390fd5b60005b6001820154811015613233578160010181815481106131f7576131f7614cd8565b6000918252602090912001546001600160a01b0316330361322b5760405163878b00e960e01b815260040160405180910390fd5b6001016131d6565b506001543410156132575760405163f52fb72d60e01b815260040160405180910390fd5b600080546040516395fdd81560e01b81523360048201526001600160a01b03909116906395fdd81590602401602060405180830381865afa1580156132a0573d6000803e3d6000fd5b505050506040513d601f19601f820116820180604052508101906132c49190614f42565b60028111156132d5576132d5614a72565b146132f25760405162d7182160e81b815260040160405180910390fd5b6000805b82548110156133405782600001818154811061331457613314614cd8565b6000918252602090912001546001600160a01b031633036133385760019150613340565b6001016132f6565b508061335f57604051633e2b0b9b60e11b815260040160405180910390fd5b336000818152600960209081526040808320878452825280832034905560018681018054918201815584529282902090920180546001600160a01b03191684179055905191825284917fb9860328d5325ca7d8f3f5fc1040667291a244d3862e6b2810e6f59685a9568f910160405180910390a26133dc83612a0e565b6001830154036133ef576133ef836142da565b505050565b600082815260056020908152604080832054835260079091528120600981015490919015613420575060015b815460008181526008602052604081209160039061343d90612a0e565b6134479190614c91565b9050821561346b57600261345e8560000154612a0e565b6134689190614c91565b90505b60008167ffffffffffffffff81111561348657613486614773565b6040519080825280602002602001820160405280156134af578160200160208202803683370190505b50905060008060008060009054906101000a90046001600160a01b03166001600160a01b03166315270cf96040518163ffffffff1660e01b8152600401602060405180830381865afa158015613509573d6000803e3d6000fd5b505050506040513d601f19601f8201168201806040525081019061352d9190614c62565b90505b848210156138b657600080548a516001600160a01b039091169063b3a34e959084908d90859061356257613562614cd8565b602002602001015187604051602001613585929190918252602082015260400190565b6040516020818303038152906040528051906020012060001c6135a89190614f63565b6040518263ffffffff1660e01b81526004016135c691815260200190565b602060405180830381865afa1580156135e3573d6000803e3d6000fd5b505050506040513d601f19601f820116820180604052508101906136079190614f77565b905060008060009054906101000a90046001600160a01b03166001600160a01b031663b3a34e95848d60018151811061364257613642614cd8565b602002602001015188604051602001613665929190918252602082015260400190565b6040516020818303038152906040528051906020012060001c6136889190614f63565b6040518263ffffffff1660e01b81526004016136a691815260200190565b602060405180830381865afa1580156136c3573d6000803e3d6000fd5b505050506040513d601f19601f820116820180604052508101906136e79190614f77565b9050600061371083838e60008151811061370357613703614cd8565b6020026020010151614330565b600080546040516366e305fd60e01b81526001600160a01b038085166004830152939450919216906366e305fd90602401602060405180830381865afa15801561375e573d6000803e3d6000fd5b505050506040513d601f19601f820116820180604052508101906137829190614cbb565b61378a575060015b60048c01546001600160a01b03838116911614806137b7575060058c01546001600160a01b038381169116145b156137c0575060015b60005b885181101561380b57826001600160a01b03168982815181106137e8576137e8614cd8565b60200260200101516001600160a01b03160361380357600191505b6001016137c3565b508a156138665760005b8a5481101561386457826001600160a01b03168b600001828154811061383d5761383d614cd8565b6000918252602090912001546001600160a01b03160361385c57600191505b600101613815565b505b806138a2578188878151811061387e5761387e614cd8565b6001600160a01b039092166020928302919091019091015261389f86614f0a565b95505b6138ab87614f0a565b965050505050613530565b866138d95742600989015583516138d390879060208701906145a4565b50613942565b60005b845181101561394057866000018582815181106138fb576138fb614cd8565b60209081029190910181015182546001808201855560009485529290932090920180546001600160a01b0319166001600160a01b0390931692909217909155016138dc565b505b875460405188151581527ff483d0d3dce8a67bd1138aeab775991e343c136aacc2e506098e348ed39d19359060200160405180910390a250505050505050505050565b600354600480546040516305d3b1d360e41b81529182019290925267ffffffffffffffff8216602482015261ffff600160401b830416604482015263ffffffff600160501b830481166064830152600160701b909204909116608482015260009081906001600160a01b037f00000000000000000000000000000000000000000000000000000000000000001690635d3b1d309060a4016020604051808303816000875af1158015613a3b573d6000803e3d6000fd5b505050506040513d601f19601f82011682018060405250810190613a5f9190614c62565b6000818152600560205260409020939093555090919050565b6000828152600860205260408120905b6001820154811015613c5b57826001600160a01b0316826001018281548110613ab357613ab3614cd8565b6000918252602090912001546001600160a01b031603613c5357600182810154613add9190614ecd565b8103613b1d5781600101805480613af657613af6614f94565b600082815260209020810160001990810180546001600160a01b0319169055019055613c53565b60018083018054600092613b3091614ecd565b81548110613b4057613b40614cd8565b6000918252602090912001546001840180546001600160a01b0390921692509083908110613b7057613b70614cd8565b600091825260209091200154600184810180546001600160a01b03909316929091613b9a91614ecd565b81548110613baa57613baa614cd8565b9060005260206000200160006101000a8154816001600160a01b0302191690836001600160a01b0316021790555080836001018381548110613bee57613bee614cd8565b9060005260206000200160006101000a8154816001600160a01b0302191690836001600160a01b0316021790555082600101805480613c2f57613c2f614f94565b600082815260209020810160001990810180546001600160a01b0319169055019055505b600101613a88565b5060005b8154811015613e1f57826001600160a01b0316826000018281548110613c8757613c87614cd8565b6000918252602090912001546001600160a01b031603613e17578154613caf90600190614ecd565b8103613ced578154829080613cc657613cc6614f94565b600082815260209020810160001990810180546001600160a01b0319169055019055613e17565b81546000908390613d0090600190614ecd565b81548110613d1057613d10614cd8565b60009182526020909120015483546001600160a01b039091169150839083908110613d3d57613d3d614cd8565b60009182526020909120015483546001600160a01b03909116908490613d6590600190614ecd565b81548110613d7557613d75614cd8565b9060005260206000200160006101000a8154816001600160a01b0302191690836001600160a01b0316021790555080836000018381548110613db957613db9614cd8565b600091825260209091200180546001600160a01b0319166001600160a01b03929092169190911790558254839080613df357613df3614f94565b600082815260209020810160001990810180546001600160a01b0319169055019055505b600101613c5f565b506040516001600160a01b0383169084907f65a0cd347c3f9ebf319a28e59f3ae96d09c1f0d2d7192617a267b2f56911e12c90600090a3505050565b6000806000613e69846123ef565b905060008060005b836020015151811015613f2457613ea584602001518281518110613e9757613e97614cd8565b602002602001015188611666565b15613f1c57600b600085602001518381518110613ec457613ec4614cd8565b6020908102919091018101516001600160a01b0316825281810192909252604090810160009081208a825290925290205460ff16613f0d57613f0582614f0a565b915081613f1a565b613f1683614f0a565b9250825b505b600101613e71565b50909590945092505050565b6000838152600760205260408120600d810180546101008587110262ffff0019909116176204000017905542600c82015590613f6b85612a0e565b8260060154613f7a9190614ef6565b60068301549091506000613f8d876123ef565b905060005b81602001515181101561417857613fc682602001518281518110613fb857613fb8614cd8565b602002602001015189611666565b1561417057600d850154610100900460ff1680156140335750600b600083602001518381518110613ff957613ff9614cd8565b6020908102919091018101516001600160a01b0316825281810192909252604090810160009081208b825290925290205460ff1615156001145b156140a15783600d60008460200151848151811061405357614053614cd8565b60200260200101516001600160a01b03166001600160a01b03168152602001908152602001600020600082825461408a9190614ca8565b9091555061409a90508484614ecd565b9250614170565b600d850154610100900460ff161580156141065750600b6000836020015183815181106140d0576140d0614cd8565b6020908102919091018101516001600160a01b0316825281810192909252604090810160009081208b825290925290205460ff16155b156141705783600d60008460200151848151811061412657614126614cd8565b60200260200101516001600160a01b03166001600160a01b03168152602001908152602001600020600082825461415d9190614ca8565b9091555061416d90508484614ecd565b92505b600101613f92565b5060068401546000888152600260205260408120805490919061419c908490614ecd565b9091555050811561420f5760008054906101000a90046001600160a01b03166001600160a01b0316638166639b836040518263ffffffff1660e01b81526004016000604051808303818588803b1580156141f557600080fd5b505af1158015614209573d6000803e3d6000fd5b50505050505b600d840154600090610100900460ff1661422b5750848061422f565b5085805b50600d8501546040805161010090920460ff16151582526020820183905289917f4210d99ad245cdfd8b921a79ffd66547982bfbc01448696bcf3cb43a281e33aa910160405180910390a25050505050505050565b600081815260076020526040808220600d8101805462ff000019166203000017905542600b8201559051909183917fbb317f735908ac3adfcb543a1ed1d371a2723bdc618eb60efa4c85e9288616dd9190a25050565b600081815260076020526040808220600d8101805462ff000019166202000017905542600a8201559051909183917f901306934aa5c62c3de0e22b3f7ddb888c060f82c4f4836e420a16a7156831969190a25050565b6000805460405163011bec8f60e61b81526001600160a01b038681166004830152839216906346fb23c090602401602060405180830381865afa15801561437b573d6000803e3d6000fd5b505050506040513d601f19601f8201168201806040525081019061439f9190614c62565b6000805460405163011bec8f60e61b81526001600160a01b038881166004830152939450919216906346fb23c090602401602060405180830381865afa1580156143ed573d6000803e3d6000fd5b505050506040513d601f19601f820116820180604052508101906144119190614c62565b90508581831115614453576144268284614ca8565b614431846064614c91565b61443b9190614ef6565b614446606487614f63565b1061444e5750845b61448e565b8282111561448e576144658284614ca8565b614470836064614c91565b61447a9190614ef6565b614485606487614f63565b101561448e5750845b9695505050505050565b6040518061024001604052806000815260200160008152602001600081526020016000815260200160006001600160a01b0316815260200160006001600160a01b031681526020016000815260200160001515815260200160001515815260200160008152602001600081526020016000815260200160008152602001600081526020016000151581526020016000151581526020016000600781111561454157614541614a72565b8152602001606081525090565b828054828255906000526020600020908101928215614594579160200282015b8281111561459457825182906145849082614faa565b509160200191906001019061456e565b506145a0929150614605565b5090565b8280548282559060005260206000209081019282156145f9579160200282015b828111156145f957825182546001600160a01b0319166001600160a01b039091161782556020909201916001909101906145c4565b506145a0929150614622565b808211156145a05760006146198282614637565b50600101614605565b5b808211156145a05760008155600101614623565b50805461464390614d83565b6000825580601f10614653575050565b601f0160209004906000526020600020908101906146719190614622565b50565b6001600160a01b038116811461467157600080fd5b600080600080600060a086880312156146a157600080fd5b85359450602086013593506040860135925060608601356146c181614674565b915060808601356146d181614674565b809150509295509295909350565b6000602082840312156146f157600080fd5b5035919050565b801515811461467157600080fd5b60006020828403121561471857600080fd5b8135614723816146f8565b9392505050565b6000806040838503121561473d57600080fd5b823561474881614674565b946020939093013593505050565b60006020828403121561476857600080fd5b813561472381614674565b634e487b7160e01b600052604160045260246000fd5b6000806040838503121561479c57600080fd5b8235915060208084013567ffffffffffffffff808211156147bc57600080fd5b818601915086601f8301126147d057600080fd5b8135818111156147e2576147e2614773565b8060051b604051601f19603f8301168101818110858211171561480757614807614773565b60405291825284820192508381018501918983111561482557600080fd5b938501935b828510156148435784358452938501939285019261482a565b8096505050505050509250929050565b60008083601f84011261486557600080fd5b50813567ffffffffffffffff81111561487d57600080fd5b6020830191508360208260051b850101111561489857600080fd5b9250929050565b6000806000604084860312156148b457600080fd5b83359250602084013567ffffffffffffffff8111156148d257600080fd5b6148de86828701614853565b9497909650939450505050565b60008151808452602080850194506020840160005b838110156149255781516001600160a01b031687529582019590820190600101614900565b509495945050505050565b60208152600082516040602084015261494c60608401826148eb565b90506020840151601f1984830301604085015261496982826148eb565b95945050505050565b6000806040838503121561498557600080fd5b50508035926020909101359150565b600080600080606085870312156149aa57600080fd5b8435935060208501356149bc816146f8565b9250604085013567ffffffffffffffff808211156149d957600080fd5b818701915087601f8301126149ed57600080fd5b8135818111156149fc57600080fd5b886020828501011115614a0e57600080fd5b95989497505060200194505050565b60008060408385031215614a3057600080fd5b823591506020830135614a42816146f8565b809150509250929050565b60008060408385031215614a6057600080fd5b823591506020830135614a4281614674565b634e487b7160e01b600052602160045260246000fd5b60088110614aa657634e487b7160e01b600052602160045260246000fd5b9052565b600082825180855260208086019550808260051b8401018186016000805b85811015614b2457601f1980888603018b5283518051808752845b81811015614afe578281018901518882018a01528801614ae3565b5086810188018590529b87019b601f019091169094018501935091840191600101614ac8565b509198975050505050505050565b602081528151602082015260208201516040820152604082015160608201526060820151608082015260006080830151614b7760a08401826001600160a01b03169052565b5060a08301516001600160a01b03811660c08401525060c083015160e083015260e0830151610100614bac8185018315159052565b8401519050610120614bc18482018315159052565b8401516101408481019190915284015161016080850191909152840151610180808501919091528401516101a0808501919091528401516101c08085019190915284015190506101e0614c178185018315159052565b8401519050610200614c2c8482018315159052565b8401519050610220614c4084820183614a88565b840151610240848101529050614c5a610260840182614aaa565b949350505050565b600060208284031215614c7457600080fd5b5051919050565b634e487b7160e01b600052601160045260246000fd5b8082028115828204841417610db457610db4614c7b565b80820180821115610db457610db4614c7b565b600060208284031215614ccd57600080fd5b8151614723816146f8565b634e487b7160e01b600052603260045260246000fd5b60208082528181018390526000908460408401835b86811015614d31578235614d1681614674565b6001600160a01b031682529183019190830190600101614d03565b509695505050505050565b6000808335601e19843603018112614d5357600080fd5b83018035915067ffffffffffffffff821115614d6e57600080fd5b60200191503681900382131561489857600080fd5b600181811c90821680614d9757607f821691505b602082108103614db757634e487b7160e01b600052602260045260246000fd5b50919050565b601f8211156133ef576000816000526020600020601f850160051c81016020861015614de65750805b601f850160051c820191505b81811015614e0557828155600101614df2565b505050505050565b67ffffffffffffffff831115614e2557614e25614773565b614e3983614e338354614d83565b83614dbd565b6000601f841160018114614e6d5760008515614e555750838201355b600019600387901b1c1916600186901b178355612661565b600083815260209020601f19861690835b82811015614e9e5786850135825560209485019460019092019101614e7e565b5086821015614ebb5760001960f88860031b161c19848701351681555b505060018560011b0183555050505050565b81810381811115610db457610db4614c7b565b634e487b7160e01b600052601260045260246000fd5b600082614f0557614f05614ee0565b500490565b600060018201614f1c57614f1c614c7b565b5060010190565b83151560f81b8152818360018301376000910160010190815292915050565b600060208284031215614f5457600080fd5b81516003811061472357600080fd5b600082614f7257614f72614ee0565b500690565b600060208284031215614f8957600080fd5b815161472381614674565b634e487b7160e01b600052603160045260246000fd5b815167ffffffffffffffff811115614fc457614fc4614773565b614fd881614fd28454614d83565b84614dbd565b602080601f83116001811461500d5760008415614ff55750858301515b600019600386901b1c1916600185901b178555614e05565b600085815260208120601f198616915b8281101561503c5788860151825594840194600190910190840161501d565b508582101561505a5787850151600019600388901b60f8161c191681555b5050505050600190811b0190555056fea2646970667358221220a089c7b70882b482be2c3cb5ff5952e7ffa56fded69daa13efdd4e76ca9cf93d64736f6c63430008170033","linkReferences":{}},"methodIdentifiers":{"DISCLOSURE_PERIOD()":"8a497cc6","GOVERNOR()":"6dc0ae22","MARKETPLACE()":"ffef3cf0","PANEL_DRAWING_MULTIPLIER_APPEAL()":"d11f8c08","PANEL_DRAWING_MULTIPLIER_NORMAL()":"4100f708","PANEL_SELECTION_PERIOD()":"f983657a","PANEL_SIZE_APPEAL()":"cc7b11b9","PANEL_SIZE_NORMAL()":"18991f6b","REVEAL_PERIOD()":"c3529f31","VOTING_PERIOD()":"b1610d7e","VRF_COORDINATOR()":"05f6a924","acceptCase(uint256)":"f8ef1382","appeal(uint256)":"7e69b7b0","arbiter(uint256)":"d40b7f77","assignAdditionalMediators(uint256,address[])":"33331883","assignArbiter(uint256,address)":"b348ba73","breakTie(uint256,bool)":"a949259b","calculateMediationFee(bool)":"0ba26139","callbackGasLimit()":"24f74697","claimMediatorFees()":"a9493930","commitVote(uint256,bytes32)":"9da69180","createDispute(uint256,uint256,uint256,address,address)":"0872ab98","dismissUnpaidCase(uint256)":"4dce966a","disputeIds()":"e026b7fb","drawAdditionalMediators(uint256)":"2ef048a3","getCommit(address,uint256)":"1065ebda","getDispute(uint256)":"e3a96cbd","getFeesHeld(uint256)":"d93bacd9","getMediatorFeesOwed(address)":"1895c651","getMediatorStakeHeld(address,uint256)":"ac98b972","getPanel(uint256)":"94f178df","getVote(address,uint256)":"6b0dd90f","hasRevealedVote(address,uint256)":"4dfe57e1","isConfirmedMediator(uint256,address)":"cf1aa615","keyHash()":"61728f39","mediatorFlatFee()":"f2f61724","mediatorPool()":"40b7a582","mediatorsNeeded(uint256)":"a0d58f93","numWords()":"7ccfd7fc","overdueCommit(uint256)":"74f785ee","overdueReveal(uint256)":"9119a62b","payMediationFee(uint256,string[])":"4b875b55","rawFulfillRandomWords(uint256,uint256[])":"1fe543e3","reclaimMediationFee(uint256)":"8f2897d5","requestConfirmations()":"b0fb162f","requestDefaultDecision(uint256)":"855244a0","revealVote(uint256,bool,string)":"a00724ff","setMediatorFlatFee(uint256)":"d8133456","settledExternally(uint256)":"0a118bec","submitAdditionalEvidence(uint256,string[])":"986106fb","subscriptionId()":"09c1ba2e","votesTied(uint256)":"0d3377c7","vrfRequestToDispute(uint256)":"98414368"},"id":42}